:020000040800F2
:10000000B028002001010008E1020008BD0200083C
:10001000DD02000899010008550B000800000000EF
:10002000000000000000000000000000A908000817
:100030009D01000800000000E30200089509000887
:100040001B0100081B0100081B0100081B01000820
:100050001B0100081B0100081B0100081B01000810
:100060001B0100081B0100081B0100081B01000800
:100070001B0100081B0100081B0100081B010008F0
:100080001B0100081B0100081B0100081B010008E0
:100090001B0100081B0100081B0100081B010008D0
:1000A0001B0100081B0100081B0100081B010008C0
:1000B0001B0100081B0100081B0100081B010008B0
:1000C0001B0100081B0100081B0100081B010008A0
:1000D0001B0100081B0100081B0100081B01000890
:1000E0001B0100081B0100081B010008DFF80CD0F1
:1000F00000F040F800480047BD320008B02800205A
:100100000648804706480047FEE7FEE7FEE7FEE7B1
:10011000FEE7FEE7FEE7FEE7FEE7FEE799090008D7
:10012000ED00000840EA01039B0703D009E008C97D
:10013000121F08C0042AFAD203E011F8013B00F8AC
:10014000013B521EF9D2704730B50B4601460020E4
:100150002022012409E021FA02F59D4205D303FA89
:1001600002F5491B04FA02F52844151EA2F101020A
:10017000F1DC30BD064C074D06E0E06840F00103BD
:1001800094E8070098471034AC42F6D3FFF7B2FF6B
:10019000903F0008B03F000800BFFEE770472DE920
:1001A000F0410246002500260020002300240027FD
:1001B00091F803C00CF00F0591F803C00CF0100C7F
:1001C000BCF1000F03D091F802C04CEA050591F88C
:1001D00000C0BCF1000F31D0146800202BE04FF0BC
:1001E000010C0CFA00F3B1F800C00CEA03069E42C1
:1001F00020D183004FF00F0C0CFA03F7BC4305FA33
:1002000003FC4CEA040491F803C0BCF1280F06D1AA
:100210004FF0010C0CFA00FCC2F814C00AE091F88F
:1002200003C0BCF1480F05D14FF0010C0CFA00FCE3
:10023000C2F810C0401C0828D1D31460B1F800C027
:10024000BCF1FF0F34DD546800202EE000F1080CF3
:100250004FF0010808FA0CF3B1F800C00CEA0306ED
:100260009E4221D183004FF00F0C0CFA03F7BC43E0
:1002700005FA03FC4CEA040491F803C0BCF1280F12
:1002800005D100F1080C08FA0CF8C2F8148091F8B6
:1002900003C0BCF1480F07D100F1080C4FF0010872
:1002A00008FA0CF8C2F81080401C0828CED354601D
:1002B000BDE8F081416170470161704702A000F024
:1002C0004BFC00BFFEE70000486172646661756C1C
:1002D00074206572726F720A0000000000BFFEE7B2
:1002E0007047704729B1064A92690243044B9A61EC
:1002F00004E0034A92698243014B9A61704700000F
:100300000010024030B500210022002400232D4DB2
:100310006D6805F00C0121B1042905D0082923D10D
:1003200005E0294D056022E0274D05601FE0254DC1
:100330006D6805F47012234D6D6805F48034022554
:1003400005EB92421CB9214D554305600BE01D4D54
:100350006D6805F400351DB11C4D5543056002E084
:10036000194D5543056002E0174D056000BF00BF01
:10037000144D6D6805F0F0010909154D6B5C0568B9
:10038000DD4045600F4D6D6805F4E061090A104DD0
:100390006B5C4568DD4085600A4D6D6805F4605111
:1003A000C90A0B4D6B5C4568DD40C560054D6D6845
:1003B00005F44041890B074D6B5CC568B5FBF3F54F
:1003C000056130BD0010024000127A0000093D00B6
:1003D000380000204800002021B1028842F040028D
:1003E000028004E002884FF6BF731A400280704713
:1003F00010B5044610210C48FFF75CFF00F016F919
:10040000202000F0D7F8C4F3074000F0D3F8C4F37D
:10041000072000F0CFF8E0B200F0CCF8102102483D
:10042000FFF74AFF10BD00000008014070B5054607
:100430000C46164610211048FFF73CFF032000F041
:10044000B9F8C4F3074000F0B5F8C4F3072000F092
:10045000B1F8E0B200F0AEF804E0FF2000F0AAF836
:1004600028706D1C301EA6F101018EB2F5D110214D
:100470000148FFF721FF70BD000801402DE9F05F42
:1004800007460E4614464FF00008C146C2460025F6
:10049000AB4610214348FFF70DFF00F0C7F806F008
:1004A000FF0A2046E11704EB1161C1F30728E117A9
:1004B00004EB11610912A4EB012101F0FF09BAF16B
:1004C000000F20D1B8F1000F05D122463946304641
:1004D00000F0C0F964E009E04FF48072394630461C
:1004E00000F0B8F906F5807607F58077B8F10000DE
:1004F000A8F1010101F0FF08EED14A463946304625
:1005000000F0A8F94CE0B8F1000F18D1A94510DDB2
:10051000A9EB050000F0FF0B2A463946304600F0F3
:1005200099F92E442F445A463946304600F092F944
:1005300036E022463946304600F08CF930E0601B48
:1005400084B22046E11704EB1161C1F30728E117DB
:1005500004EB11610912A4EB012101F0FF092A4605
:100560003946304600F076F92E442F4409E04FF426
:1005700080723946304600F06DF906F5807607F551
:100580008077B8F10000A8F1010101F0FF08EED179
:10059000B9F1000F04D04A463946304600F05AF906
:1005A000BDE8F09F0008014010B500F05FF800F0D2
:1005B000CDF810BD10B504464FF4805019490860BD
:1005C0000AE018490868411E164A116020B9002047
:1005D00000F006F9C0B210BD0221134800F08AF8FD
:1005E0000028EED02146104800F090F84FF48050DB
:1005F0000C4908600AE00B490868411E094A11606D
:1006000020B9012000F0ECF8C0B2E4E7012106486F
:1006100000F070F80028EED0034800F074F8C0B283
:10062000D9E70000340000200030014010B510214F
:100630000548FFF73FFE0620FFF7BCFF10210248E8
:10064000FFF73AFE10BD00000008014010B5102170
:100650000548FFF72FFEAB20FFF7ACFF1021024843
:10066000FFF72AFE10BD00000008014008B5012177
:100670000803FFF737FE01210420FFF733FE18209F
:100680008DF8030003208DF802002020ADF8000053
:1006900069461748FFF783FD8020ADF80000182059
:1006A0008DF8030003208DF8020069461048FFF71B
:1006B00076FD4020ADF8000004208DF803000320F3
:1006C0008DF8020069460A48FFF769FD10208DF891
:1006D000030003208DF802001020ADF800006946E9
:1006E0000348FFF75CFD10210148FFF7E5FD08BD59
:1006F000000801400246002013890B400BB1012085
:1007000000E000207047014688897047818170476A
:1007100010B50022028802F441520B884C88234312
:100720008C882343CC8823430C8923434C8923435F
:100730008C892343CC8923431A430280838B4FF255
:10074000FF74234083830B8A038210BD00B585B0FC
:100750000020ADF800004FF48270ADF802000020D8
:10076000ADF804000220ADF806000120ADF8080045
:100770004002ADF80A000820ADF80C000020ADF8EA
:100780000E00ADF8100069460448FFF7C1FF0121D3
:100790000248FFF721FE05B000BD00000030014017
:1007A00010B5002410210D48FFF784FD9F20FFF7AE
:1007B00001FFFF20FFF7FEFE04462402FF20FFF7A3
:1007C000F9FE04432402FF20FFF7F4FE0443102146
:1007D0000248FFF771FD204610BD000000080140EF
:1007E00010B50446214602A000F0B6F9002010BD65
:1007F0003C3C2D464C4153482D4552524F522D3EC4
:100800003E53504920B5C8B4FDB3ACCAB12165729E
:10081000726F72436F6465203D2025640A000000FA
:1008200010B5002410210A48FFF744FD0520FFF70A
:10083000C1FE00BFFF20FFF7BDFE044604F001002B
:100840000028F7D110210248FFF736FD10BD000047
:100850000008014070B504460D461646FFF7E6FE57
:1008600010211048FFF726FD0220FFF7A3FEC4F376
:100870000740FFF79FFEC4F30720FFF79BFEE0B29F
:10088000FFF798FE03E02878FFF794FE6D1C301EFA
:10089000A6F10106F7D110210248FFF70DFDFFF781
:1008A000BFFF70BD00080140704710B500F002F8AE
:1008B00010BD00000CB50020019000903348006886
:1008C00040F480303149086000BF3048006800F4CF
:1008D000003000900198401C0190009818B90198D0
:1008E000B0F5A06FF1D12948006800F4003010B1D4
:1008F0000120009001E0002000900098012843D1E1
:100900002348006840F0100021490860084600684C
:1009100020F0030008600846006840F0020008600C
:100920001A484068194948600846406848600846C7
:10093000406840F4806048600846406820F47C10BD
:1009400048600846406840F4E8104860084600687F
:1009500040F08070086000BF0C48006800F0007034
:100960000028F9D00948406820F003000749486092
:100970000846406840F00200486000BF03484068F5
:1009800000F00C000828F9D10CBD00000010024056
:10099000002002407047000010B51348006840F086
:1009A00001001149086008464068104908400E4996
:1009B0004860084600680E4908400B490860084630
:1009C000006820F4802008600846406820F4FE009B
:1009D00048604FF41F008860FFF767FF4FF000602A
:1009E0000449086010BD0000001002400000FFF83C
:1009F000FFFFF6FE08ED00E021B1828942F40052CB
:100A0000828104E082894DF6FF731A40828170472B
:100A100002460020B1F5007F00D100BF13880B40D3
:100A20000BB1012000E000207047F0B50346002420
:100A300000260025002040F66A17B94200D100BF09
:100A40001846C1F3421401F01F06012707FA06F504
:100A5000012C01D10C3004E0022C01D1103000E057
:100A600014301AB107682F43076002E00768AF43EC
:100A70000760F0BD2DE9F04786B005460E4600241C
:100A8000A24600BFA1460027B08900B100BF2F4693
:100A90002C8A4CF6FF700440F08804432C82AC8909
:100AA0004EF6F3100440B088318908437189084339
:100AB0000443AC81AC8A4FF6FF400440B089044344
:100AC000AC8201A8FFF71EFC1F48874202D1DDF867
:100AD00010A001E0DDF80CA0A88900F4004040B1AE
:100AE0000AEBCA0000EB0A1031684900B0FBF1F8CC
:100AF00007E00AEBCA0000EB0A1031688900B0FB7E
:100B0000F1F86420B8FBF0F004012009642101FB36
:100B10001089A88900F4004040B1322000EBC900E0
:100B2000B0FBF1F000F00700044308E0322000EBD6
:100B300009106421B0FBF1F000F00F0004432C8198
:100B400006B0BDE8F087000000380140C1F308029C
:100B50008280704700BFFEE70FB4054B10B503A9B4
:100B6000044A029800F018F810BC5DF814FB00006D
:100B7000B13000085800002002E008C8121F08C168
:100B8000002AFAD170477047002001E001C1121F0E
:100B9000002AFBD1704700002DE9FF4F8BB088463B
:100BA0000546002606E025280BD0DDE90D1290470A
:100BB0006D1C761C28780028F5D10FB03046BDE8B2
:100BC000F08F0024A146A2460122AE4900E0044372
:100BD00015F8013F203B02FA03F00842F7D12878CC
:100BE0002A2810D06FF02F022878A0F130010929AF
:100BF00015D809EB890102EB410144F0020400EB36
:100C000001096D1CF0E758F8041B5FEA010903D5E0
:100C100044F40054C9F1000944F002046D1C287822
:100C20002E2817D115F8010F44F004042A280ED0FD
:100C30006FF02F022878A0F1300109290AD80AEBB9
:100C40008A0102EB410100EB010A6D1CF2E758F842
:100C500004AB6D1C28786C280FD006DC4C2817D00C
:100C600068280DD06A2814D104E0742810D07A289E
:100C70000FD10DE044F400140AE044F4801401E0C4
:100C800044F440146978814202D104F580146D1C4B
:100C90006D1C2878692865D006DC00288DD0632873
:100CA00027D0642806D15DE06E2808D073282AD0AA
:100CB000752877D0DDE90D129047761CE0E0C4F38B
:100CC0000250022809D003280DD0D8F800100428BB
:100CD0000DD00E6008F10408D2E0D8F80010F21729
:100CE000C1E90062F6E7D8F800100E80F2E70E7056
:100CF000F0E718F8041B8DF8001000208DF80100B3
:100D0000EB46012003E058F804BB4FF0FF306107C9
:100D10004FF0000701D40AE07F1C57450DDA8742E7
:100D2000FADB1BF807100029F6D106E07F1C87428A
:100D3000FCDB1BF807100029F8D1DDE90D23A9EB36
:100D400007008146214600F0B1F83044C61904E09E
:100D5000DDE90D121BF8010B90477F1EF8D22146EA
:100D6000484688E058F8040BC4F302514FF00A0BD0
:100D7000032900D100B2042900D140B2002802DAD0
:100D800040422D2102E0210505D52B218DF82410AC
:100D9000012104E006E0E10710D02021F6E708AFCA
:100DA000089113E058F8040BC4F302514FF00A0BFA
:100DB000032900D180B2042900D1C0B20021EEE79E
:100DC0005946FFF7C1F9303107F8011D0028F7D166
:100DD000ADEB070000F1200B600702D524F480344E
:100DE00001E04FF0010ADA4502DDAAEB0B0000E05A
:100DF0000020824600EB0B0108980144A9EB01009A
:100E00000A90E00306D4DDE90D2321460A9800F09C
:100E10004DF806444FF0000908E009A911F809004F
:100E2000DDE90D12904709F10109761C0899894501
:100E3000F3DBE0030CD5DDE90D2321460A9800F031
:100E400035F8064404E0DDE90D1230209047761CA9
:100E5000BAF10001AAF1010AF5DC05E0DDE90D12A5
:100E600017F8010B9047761CBBF10001ABF1010BA9
:100E7000F4DC0A982146DDE90D2300F005F806446C
:100E80006D1C97E6092801002DE9F0410446002574
:100E90001E461746880404D405E039462020B04792
:100EA0006D1C641EF9D52846BDE8F0812DE9F0419E
:100EB000044600251E469046C80301D5302700E0B1
:100EC0002027880404D505E041463846B0476D1C0C
:100ED000641EF9D52846BDE8F081000070B50446CF
:100EE0000D4600202071401EE0622946204602F097
:100EF00029FD08B1032070BD94F82E1294F82F023A
:100F000041EA00204AF65521884201D00220F2E74A
:100F100094F86900010694F8680041EA004194F8E9
:100F2000670041EA002094F86610084320F07F40F3
:100F30000D49884201D10020DDE794F885000106C3
:100F400094F8840041EA004194F8830041EA0020CB
:100F500094F88210084320F07F400349884201D171
:100F60000020C8E70120C6E746415400024600E0E1
:100F7000521C107810B110788842F9D1107870475F
:100F80000246891E5069801E884201D800207047A1
:100F90009378906A01FB0300F9E72DE9F0470446D6
:100FA0008946B9F1000F06D1E76817B16069B84208
:100FB00015D8012713E04946204602F08BF8064673
:100FC000022E02D20120BDE8F087701C08B930461D
:100FD000F9E76069B04201D93046F4E74F463D4633
:100FE00000BF6D1C6069A84204D80225BD4201D92A
:100FF0000020E8E72946204602F06CF8064606B9CC
:1010000009E0701C08B1012E01D13046DBE7BD427A
:10101000E7D10020D7E700BF6FF070422946204695
:1010200002F0AAFC8046B8F1000F08D1B9F1000F18
:1010300005D02A464946204602F09EFC8046B8F17B
:10104000000F0BD1E5602069401C78B12069401E7B
:101050002061607940F00100607107E0B8F1010F94
:1010600002D14FF0FF3000E0012005462846AAE7F4
:101070002DE9F35F0198D0F8009001E009F1010932
:1010800099F800002F28F9D099F800005C28F5D0D5
:10109000009886690B222021304602F0C9FA00250B
:1010A0002F46AB464FF0080A00BF58460BF1010B24
:1010B00019F80040202C03DD2F2C01D05C2C00D12E
:1010C00053E02E2C01D057450DD3BAF1080F01D1B2
:1010D0002E2C02D00620BDE8FC9F08274FF00B0AFB
:1010E000A806050EE1E7802C01DB45F00305812C05
:1010F00020DBFE2C1EDC58460BF1010B19F800809A
:10110000B8F1400F02DBB8F17E0F05DDB8F1800FBA
:1011100006DBB8F1FE0F03DCAAF10100B84201D8EA
:101120000620D8E738467F1C345438467F1C06F822
:10113000008019E0214620A0FFF718FF08B1062023
:10114000C9E7412C04DB5A2C02DC45F0020508E01B
:10115000612C06DB7A2C04DC45F00105A4F12000AB
:10116000C4B238467F1C34549FE700BF09EB0B0123
:1011700001980160202C01DC042000E000200446DE
:101180000FB90620A7E73078E52801D10520307097
:10119000BAF1080F01D1A806050E05F003000128D9
:1011A00001D144F0100405F00C00042801D144F0F2
:1011B0000804F47200208EE7222A2B2C3A3B3C3D97
:1011C0003E3F5B5D7C7F00002DE9F04104460E460A
:1011D0000021204600F062F90546EDB9002700BF66
:1011E0002169206802F0AEFB054605B113E0606995
:1011F0000078E52802D06069007820B9781C07469D
:10120000B04201D107E000270121204600F038F864
:101210000546002DE4D000BF042D00D10725284647
:10122000BDE8F0812DE9F04104460021204600F0A0
:1012300035F9054615B12846BDE8F08100BF2169A2
:10124000206802F07FFB054605B116E06669377835
:101250000FB9042511E0F07A00F0080030B90B2234
:101260003046A16902F0C4F900B906E00021204629
:1012700000F006F80546002DE1D000BF2846DBE768
:101280002DE9F04104468846E088461CB0B208B11A
:10129000206910B90420BDE8F08121684889C11790
:1012A00000EBD1614911B6FBF1F201FB126100299B
:1012B00071D12069401C2061E06828B9206800894C
:1012C000B04268D80420E6E721684889C11700EBDE
:1012D000D1614911B6FBF1F122689278521E11409A
:1012E000002958D1E168206801F0F4FE0546012D7F
:1012F00001D80220CFE7681C08B90120CBE720689D
:101300004069A84241D8B8F1000F01D10420C2E7DA
:10131000E1682068FFF741FE05460DB90720BAE7EE
:10132000012D01D10220B6E7681C08B90120B2E7FF
:10133000206802F0A9FC08B10120ACE721684A89C5
:1013400001F13000002102F073F929462068FFF70F
:1013500017FE2168C86200270EE00120216808718D
:10136000206802F091FC08B1012094E72068C06A6F
:10137000401C2168C8627F1C20688078B842ECD885
:101380002068C06AC01B2168C862E56029462068E1
:10139000FFF7F6FD2061E68021684889C11700EB60
:1013A000D1614911B6FBF1F201FB126122683032C2
:1013B00002EB4111616100206DE72DE9F047044621
:1013C0008946042528E02169206802F0BBFA054619
:1013D00005B124E0D4F8148098F800600EB9042513
:1013E0001DE098F80B0000F03F07E52E0DD02E2EE3
:1013F0000BD00F2F09D027F02000082801D10120A1
:1014000000E00020484500D109E000212046FFF718
:1014100037FF054605B102E020690028D3D100BF9F
:101420000DB1002020612846BDE8F08770B5044664
:1014300001212046FFF7C8FE054695B921692068BD
:1014400002F080FA054665B920220021606902F0A9
:10145000EFF80B22D4E9050102F0DDF80120216844
:101460000871284670BD70B50446E188204600F03A
:1014700015F8054685B92169206802F063FA05462A
:1014800055B920220021606902F0D2F8E520616997
:101490000870012021680871284670BD2DE9F041CF
:1014A00004460E46E680A568012D03D020684069F9
:1014B000A84202D80220BDE8F0812DB9206800784A
:1014C000032801D12068456A45B920680089B042E7
:1014D00001D80220EFE72068476A24E021684889A4
:1014E000C11700EBD16149112268927801FB02F823
:1014F00012E02946206801F0EDFD0546681C08B998
:101500000120D8E7022D03D320684069A84201D802
:101510000220D0E7A6EB08064645EAD22946206815
:10152000FFF72EFD0746E5600FB90220C3E72168EB
:101530004889C11700EBD1614911B6FBF1F139447B
:10154000216121684889C11700EBD1614911B6FBBF
:10155000F1F201FB12612268303202EB411161614C
:101560000020A8E770B50446012614B1012C11D162
:1015700000E011E0FFF718F84FF4FA7500BF681E9D
:1015800080B2051EFBD1FFF761F8012000F04AF898
:10159000064601E0012600BF00BF304670BD10B511
:1015A0000346042013B1012B16D100E016E00129F7
:1015B00004D0022906D003290BD107E04FF4C06400
:1015C000146006E04FF48054148002E0012414609B
:1015D00000BF00BF002001E0042000BF00BF10BD1D
:1015E0002DE9F04105460E4614461F464FF004080B
:1015F00015B1012D0ED100E00FE004F500744FF697
:10160000FF7000EA073221033046FEF70FFF4FF06C
:10161000000802E04FF0040800BF00BF4046BDE8EC
:10162000F081000070B50446012514B1012C0BD1E6
:1016300000E00BE0FFF7B4F80649884202D125F03C
:10164000010500E0012501E0012500BF00BF28469B
:1016500070BD00001740EF002DE9F04707468846AF
:1016600014461D464FF0040915B90420BDE8F08763
:1016700017B1012F12D100E013E004F50074260326
:101680003046FEF7B5FE4FF6FF7000EA05323146F0
:101690004046FEF7F3FE4FF0000902E04FF0040968
:1016A00000BF00BF4846E1E770B50546284601F097
:1016B0001AF9044634B9284602F058FB04460CB91E
:1016C00000202860204670BD70B50446204602F018
:1016D0004DFB05460DB900202060284670BD2DE960
:1016E000F74F82B08A46002202A9049801F0ACFAB2
:1016F000019004980468019800286DD1D4E9041081
:10170000801E814203D82069CAF8000064E094F882
:1017100000B00026BBF1010F1CD1022700BF3946E3
:10172000204601F0D7FC804608F1010010B90120E5
:1017300001900EE0B8F1010F02D10220019008E003
:10174000B8F1000F00D1761C781C07466169884209
:10175000E5D33AE06769206A00904FF00009002560
:1017600000BFB9F1000F0ED10098421C014620467F
:10177000009202F0E7F80190019800B124E004F132
:101780003005B4F80A90BBF1020F09D128786978C6
:1017900040EA012000B9761CAD1CA9F1020910E055
:1017A000E8780006A97840EA0140697840EA01201B
:1017B0002978084320F0704000B9761C2D1DA9F14E
:1017C0000409781E071ECCD100BF2661607940F065
:1017D00001006071CAF80060019805B0BDE8F08FA3
:1017E0002DE9F04704460E46204602F0BFFA824635
:1017F000BAF1000F02D05046BDE8F087E07908B199
:10180000E079F9E7E068B04204D2A07900F0020084
:1018100000B9E668D4F808904FF00008C4F80880D2
:10182000002E71D0206880782168498900FB01F77B
:10183000B9F1000F11D0701EB0FBF7F1A9F1010052
:10184000B0FBF7F0814208D3A9F10100791E88436B
:10185000A060A068361A656912E025697DB900218B
:101860002068FFF79AFB0546012D02D10220E071A6
:10187000C2E7681C10B90120E071BDE72561656110
:10188000002D41D023E0A07900F0020038B12946B4
:101890002068FFF782FB054635B93E4619E0294628
:1018A000206801F017FC0546681C10B90120E071A2
:1018B000A2E7012D03D920684069A84202D802207E
:1018C000E07199E76561A0683844A060F61BBE42EC
:1018D000D9D800BFA0683044A06020684089B6FB1A
:1018E000F0F100FB116078B129462068FFF748FB52
:1018F0008046B8F1000F02D10220E0717CE7206839
:101900004089B6FBF0F0804421684989A068B0FBAB
:10191000F1F201FB120020B3A069404521D0A0796B
:1019200000F0400078B121684878012304F12401D7
:10193000A269FFF791FE10B10120E0715CE7A07988
:1019400020F04000A071216848780123424604F14C
:101950002401FFF745FE10B10120E0714CE7C4F807
:101960001880D4E90201884205D9A068E060A07916
:1019700040F02000A07150463EE72DE9F1478BB0C2
:1019800001F048FC064601220BA904A801F05CF90D
:101990000546002D7DD101A80A9004A80B9901F0FD
:1019A0003FFB054605B9082500BF042DF2D10021F3
:1019B0000498FFF7F2FA0746002507B90725012F1B
:1019C00000D10225781C00B901251DB9049802F048
:1019D0005BF90546002D5AD139460498FFF7D0FA35
:1019E0008146049800F13004049842890021204681
:1019F00001F01EFE0B222021204601F019FE2E20B0
:101A000020701020E072A675310AE175310C217644
:101A1000310E61763946204602F0CAF8202221466E
:101A200004F1200001F0F7FD2E2084F82100DDF8FC
:101A300018A004980078032804D10498406A5045FF
:101A400000D1AA46514604F1200002F0B1F80498F2
:101A500090F8028017E00498C0F82C9009F1010971
:101A6000012004990871049802F00EF9054605B1A9
:101A70000CE0049842890021204601F0D9FDA8F12C
:101A8000010000F0FF08B8F1000FE4D100BF2DB94C
:101A900000E01EE004A8FFF7C9FC054625B1394661
:101AA000049802F04FF814E0099C1020E072A6752B
:101AB000310AE175310C2176310E617639462046C6
:101AC00002F076F8012004990871049802F078F881
:101AD000054628460CB0BDE8F08700002DE9F74F19
:101AE00090B091461198012803DD132013B0BDE892
:101AF000F08F10A801F092FB0F900F98002801DAE8
:101B00000B20F3E7FA490F9851F820500DB90C203B
:101B1000ECE7002028700F98C0B20C9000200B90CA
:101B20000C98FFF71FFD0190019800F0010008B12B
:101B30000320DBE7019800F0040008B10A20D5E794
:101B400005F10A0202210C98FFF729FD38B96889CE
:101B5000B0F5805F03DC6889B0F5007F01DA012011
:101B6000C4E700BF04AA01210C98FFF718FD10B9C3
:101B70000498802801D20120B8E7119808B100200C
:101B800000E03F2082460498A0EB0A000490A9F1EF
:101B9000010000EA090008B14FF00009B9F1000F97
:101BA0001AD16889C11700EBD15149124FF4FA627A
:101BB00092FBF1F1049AB2FBF1F10A914FF0000BA4
:101BC00001E00BF1010BCB4830F81B100A98814261
:101BD000F7D8C94830F81B90B9F5007F02D368895F
:101BE000B9FBF0F9B9F1000F01D14FF00109B9F1DA
:101BF000800F01D94FF080090498B0FBF9F8012655
:101C000040F6F670804500D302264FF6F670804508
:101C100000D30326032E0CD1082000EB880069892D
:101C20000844401EB0FBF1F72020039000200290F2
:101C300019E0012E05D108EB4800401C4008C01CEB
:101C400002E04FEA4800001D074668893844401EFC
:101C50006989B0FBF1F70120039068894FF4804156
:101C6000B1FBF0F002900398504407900798384475
:101C70000690029906980844059005984844A0EB00
:101C80000A000499884201D90E202FE709AA0321EE
:101C90000C98FFF784FC28B9099818B10998B0F599
:101CA000004F01D901200990099905980844401E68
:101CB000491E8843099009990598081A0990032E2E
:101CC00008D1099903980844039009990798084492
:101CD000079001E009980744DDE90301081AC11BD8
:101CE0000298081AB0FBF9F8022E03D140F6F670FC
:101CF000804505D3032E05D14FF6F670804501D2FD
:101D00000E20F3E6032E02D10C200D9010E0012EE0
:101D100006D10498B0F5803F02D201200D9007E073
:101D20000498B0F5803F01D2042000E006200D9019
:101D300000BF119810B1F0200E9043E06A89002195
:101D400005F1300001F074FC05F5F77401206070B6
:101D5000A0700020E0700D982071FE206071049842
:101D600050443F21B0FBF1F0FF21B0FBF1F00990AE
:101D70003F21099841EA9000A0710998E0713F2045
:101D8000207200216172A172E1720498207304989C
:101D9000010A61730498010CA1730498010EE173A8
:101DA000552185F82E12AA2185F82F120123002231
:101DB00005F130010C98FFF74FFC08B1012095E6C2
:101DC000F8200E9005F130046A890021204601F0C8
:101DD0002FFC0B2249A1204601F01DFCB5F80AB0EA
:101DE00084F80BB04FEA1B21217384F80D900398FF
:101DF000A0730398010AE17301202074032E01D11E
:101E0000002001E04FF40070834684F811B04FEADF
:101E10001B21A1740498B0F5803F05D20498E074AA
:101E20000498010A217510E0049884F820000498B1
:101E3000C0F30721212001550498C0F30741222057
:101E400001550498010E232001550E9860753F201E
:101E5000207600216176FF20A076E17684F81CA030
:101E60004FEA1A2161774FEA1A41A1774FEA1A61C6
:101E7000E17701F0CFF90990032E4BD1099884F84E
:101E800043000998C0F30721442001550998C0F385
:101E90000741452001550998010E4620015584F857
:101EA0002470C7F3072125200155C7F307412620D9
:101EB0000155390E27200155022084F82C000021FD
:101EC0002D2001552E2001552F200155012084F889
:101ED000300031200155062084F8320033200155AE
:101EE000802084F84000292084F8420013220BE06F
:101EF0004C000020623F0008783F0008EBFE904D48
:101F000053444F53352E30008AA104F1470001F0AD
:101F100082FB1FE0099884F827000998C0F3072185
:101F2000282001550998C0F3074129200155099837
:101F3000010E2A200155A775390AE175802084F821
:101F40002400292084F8260013227FA104F12B000D
:101F500001F061FB552084F8FE01AA2140F2FF1038
:101F600001550123524621460C98FFF775FB08B135
:101F70000120BBE5032E06D101230AF1060221460A
:101F80000C98FFF769FB079808904FF0000B5FE093
:101F90006A890021204601F04BFB0E980990032E20
:101FA00014D0012E01D16D4801E06FF0FF000999B6
:101FB00008430990099820700998000A60700998F0
:101FC000000CA0700998000EE07019E0099860F00C
:101FD000FF000990099820700998000A607009981C
:101FE000000CA0700998000EE070FF202071FF2106
:101FF0006171A171E17120726172A1720F21E172B0
:102000000898411C02460123089121460C98FFF7CD
:1020100023FB08B1012069E56A890021204601F00F
:1020200007FB012009900EE00898411C024601239D
:10203000089121460C98FFF70FFB08B1012055E5E8
:102040000998401C09900998B842EDD30BF1010B97
:10205000BBF1000F9CD0032E01D1484600E002984E
:10206000834600BF0898411C02460123089121467F
:102070000C98FFF7F1FA08B1012037E5ABF1010048
:10208000B0F1000BEED1032E49D1522020706070C8
:102090006120A0704120E070722084F8E401722178
:1020A00040F2E51001554121401C01556121401CC1
:1020B0000155A8F1010084F8E801C0F3072140F2BE
:1020C000E9100155A8F10100C0F307414FF4F57084
:1020D0000155A8F10100010E40F2EB10015502205C
:1020E00084F8EC01002140F2ED100155401C01552F
:1020F000401C0155552084F8FE01AA2140F2FF1032
:10210000015501230AF1010221460C98FFF7A4FAB8
:1021100001230AF1070221460C98FFF79DFA0022DD
:1021200011460C98FFF73BFA08B10120DEE40020CD
:10213000DCE400004E4F204E414D4520202020463B
:1021400041543332202020004E4F204E414D452037
:1021500020202046415420202020200000FFFF00A6
:10216000F7B582B016460398019001A801F056F821
:102170000546002D02DA0B2005B0F0BD0E4850F8E0
:1021800025400CB100202070029810B10020029967
:1021900008700949029841F82500029808B1012EFB
:1021A00001D00020E8E7002203A902A800F04CFDBE
:1021B00007463846E0E700004C0000202DE9F743D1
:1021C0008AB0054616461DB909200DB0BDE8F0835A
:1021D0000020286006F01F0626F001020BA903A8C4
:1021E00000F032FD0746002F72D1CDF824D003A8AD
:1021F0000B9900F015FF0746089C0FB904B9062794
:1022000006F01C0000285CD04FB1042F03D103A8B6
:10221000FFF70CF9074646F00806089C09E0E07A4B
:1022200000F0110008B1072703E006F0040000B138
:102230000827002F55D106F00800002851D000F0E3
:10224000E9FF804684F80E804FEA1821E1734FEAD7
:10225000184121744FEA1861617484F816804FEABE
:102260001821E1754FEA184121764FEA186161762D
:102270000020E072207700216177A177E177214685
:10228000039800F0F0FF81460021204601F090FC09
:10229000012003990871B9F1000F22D00398D0F8FA
:1022A0002C804946039801F04DFC0746CFB9A9F1AF
:1022B00001000399C8604146039801F043FB0746BB
:1022C0000FE077B9E07A00F0100010B1042708E0C1
:1022D0002DE006F0020020B1E07A00F0010000B12C
:1022E000072747B906F0080008B146F02006039812
:1022F000C06AE8612C62D7B9AE710020E87121464E
:10230000039800F0B0FF2861E07F0106A07F41EA5A
:102310000041607F41EA0020217F0843E8600020FF
:10232000A860A861039828602868C088A8803846FB
:102330004BE733B585B0044614B9092007B030BD6A
:10234000002206A904A800F07FFC05461DBB0498E6
:10235000206001A8A0612046069900F061FE0546B4
:10236000B5B9606958B16069C07A00F0100028B151
:102370006169049800F077FFA06000E005253DB991
:102380000498C088A08000212046FFF787F8054602
:10239000042D00D105250DB1002020602846CDE791
:1023A0000FB42DE9F04F9BB02498019000200290CB
:1023B000039026A81A9000BF259810F8014B25908D
:1023C00004B90DE1252C04D0214601A801F098FBA9
:1023D000F2E7002006468146259810F8014B25902B
:1023E000302C05D10126259810F8014B259006E0E8
:1023F0002D2C04D10226259810F8014B259009E0D8
:1024000009EB890004EB4000A0F13009259810F891
:10241000014B2590302C01DB392CF1DD6C2C01D0E7
:102420004C2C05D146F00406259810F8014B259058
:1024300004B9D5E02546612D04DB7A2D02DCA5F137
:102440002000C5B24F2D49D006DC422D43D0432D8C
:1024500038D0442D4CD144E0532D04D0552D41D0DB
:10246000582D45D141E01A9850F804BB1A904FF00E
:10247000000801E008F101081BF808000028F9D164
:1024800006F0020048B903E0202101A801F038FB62
:10249000404608F101084845F6D304E01BF8011B4B
:1024A00001A801F02DFB9BF800000028F6D103E005
:1024B000202101A801F024FB404608F1010848450D
:1024C000F6D379E71A9810F8042BD1B21A9001A824
:1024D00001F016FB70E7022019900EE00820199019
:1024E0000BE000BF0A20199007E01020199004E0CB
:1024F000214601A801F004FB5EE700BF06F00400DE
:1025000028B11A9800681A99091D1A910CE0442DF7
:1025100005D11A9800681A99091D1A9104E01A98B1
:1025200000681A99091D1A918246442D06D10AF0B5
:10253000004018B1CAF1000A46F00806002700BFA3
:102540001998BAFBF0F100FB11A0C5B21998BAFBBB
:10255000F0FA092D06DD782C01D1272000E00720B4
:102560002844C5B205F13000C2B238467F1C14A918
:102570000A54BAF1000F01D0102FE1D306F0080081
:1025800020B12D2238467F1C14A90A54B84606F003
:10259000010008B1302000E02020054603E0294674
:1025A00001A801F0ADFA06F0020020B9404608F19A
:1025B00001084845F3D300BF781E074614AA115CF2
:1025C00001A801F09DFA002FF6D103E0294601A8E9
:1025D00001F096FA404608F101084845F6D3EBE6CB
:1025E00000BF00201A900298002810DB18AB04A945
:1025F000DDE9010200F022FA48B9189902988842F0
:1026000005D103981BB0BDE8F00F5DF814FB4FF047
:10261000FF30F7E72DE9FF4F85B0044615469A468F
:10262000DDF818B00020CAF80000204601F09EFB3B
:102630000490049818B1049809B0BDE8F08FE079CF
:1026400008B1E079F8E7A07900F0010008B90720A7
:10265000F2E7D4E90210401A02900298854200D9AC
:10266000029DBAE021684989A068B0FBF1F201FB44
:102670001200002877D121684989A068B0FBF1F0E9
:1026800021688978491E084000F0FF09B9F1000F60
:1026900017D1A06810B92069039004E0616920682F
:1026A00000F018FD03900398022802D20220E07186
:1026B000C2E70398401C10B90120E071BCE7039801
:1026C000606161692068FEF75BFC064616B902206E
:1026D000E071B1E74E4420684089B5FBF0F8B8F1ED
:1026E000000F2DD009EB080021688978884203D9B2
:1026F00020688078A0EB0908216848784346324674
:102700005946FEF76DFF10B10120E07194E7A07902
:1027100000F0400078B1A069801B40450BD2A16950
:10272000891B23685B8901FB03B021684A8904F196
:10273000240100F070FF2068408900FB08F742E0A8
:10274000A069B04220D0A07900F0400080B121689B
:102750004878012304F12401A269FEF77DFF18B136
:102760000120E07168E710E0A07920F04000A0713E
:10277000216848780123324604F12401FEF730FF36
:1027800010B10120E07157E7A66121684989A0686E
:10279000B0FBF1F201FB1200216849890F1AAF4228
:1027A00000D92F4621684989A068B0FBF1F201FBEE
:1027B000120104F1240008443A46014601905846AB
:1027C00000F029FF00BFBB44A0683844A060DAF8DD
:1027D00000003844CAF80000ED1B002D7FF442AF22
:1027E000002029E7F3B597B0012217A910A800F03F
:1027F0002BFA0446002C73D110980990CDF858D0CC
:1028000010A8179900F00CFC044600BF002C67D1FB
:10281000159808B9042463E0159800F10B011522FE
:1028200003A800F0F8FE1C2210A909A800F0F3FE8E
:1028300018A800F0F3FC002805DB09A8189900F09F
:10284000EFFB044600E00B2404B90824042C47D114
:1028500009A8FEF7EBFD0446002C41D10E9D132282
:102860000DF10E0105F10D0000F0D5FE9DF80C00F4
:1028700040F02000E872012010990871E87A00F019
:10288000100018B30B99129888421FD0294610984F
:1028900000F0E9FC074639461098FEF771FB064642
:1028A0000EB9022412E03146109801F04BF80446AC
:1028B000109800F150054CB968782E2806D12846AA
:1028C0000B9901F075F901201099087144B910A80D
:1028D000FEF7C9FD04461CB9109801F071F90446D1
:1028E000204619B0F0BD2DE9F0410446204601F024
:1028F0003DFA0746002F4CD1A07900F020000028B7
:1029000047D0A07900F0400078B1216848780123D1
:1029100004F12401A269FEF79FFE10B10120BDE879
:10292000F081A07920F04000A071E169206801F0F9
:1029300009F80746002F2CD1256AE87A40F02000DC
:10294000E872207B2877A089010A6977E068010C8A
:10295000A977E068010EE9772846216901F028F996
:1029600000F058FC0646AE75310AE975310C29763F
:10297000310E69760020A8740021E974A07920F056
:102980002000A071012021680871206801F018F969
:1029900007463846C3E771B591B00026012211A958
:1029A0000AA800F051F90446002C44D1CDF840D0DB
:1029B0000AA8119900F034FB044600BF002C3AD15C
:1029C0000F9D0DB9062404E0E87A00F0010000B183
:1029D0000724FCB929460A9800F045FC0646CEB10A
:1029E000E87A00F01000A8B11C220AA903A800F0A0
:1029F00012FE0596022103A8FEF750FD04464CB9CD
:102A0000002103A8FEF7D9FC044604B90724042CCE
:102A100000D100247CB90AA8FEF725FD04462CB994
:102A200026B131460A9801F08DF804461CB90A987F
:102A300001F0C6F80446204612B070BD2DE9FF4FE4
:102A400083B0044615469B46049801900020CBF8BD
:102A50000000204601F08AF90290029818B102980D
:102A600007B0BDE8F08FE07908B1E079F8E7A07928
:102A700000F0020008B90720F2E7A0682844A16826
:102A8000884200D20025CFE021684989A068B0FBC8
:102A9000F1F201FB120000287ED121684989A0686B
:102AA000B0FBF1F021688978491E084000F0FF0A68
:102AB000BAF1000F1ED1A06838B9276957B90021B3
:102AC0002068FEF76AFA074604E061692068FEF7AD
:102AD00064FA074607B9AAE0012F02D10220E0718B
:102AE000BEE7781C10B90120E071B9E76761206981
:102AF00000B92761A07900F0400078B121684878DA
:102B0000012304F12401A269FEF7A6FD10B1012002
:102B1000E071A5E7A07920F04000A071616920680C
:102B2000FEF72EFA064616B90220E07198E75644E1
:102B300020684089B5FBF0F9B9F1000F31D00AEBFC
:102B4000090021688978884203D920688078A0EB41
:102B50000A09216848784B4632460199FEF77CFD08
:102B600010B10120E0717BE7A069801B484511D2BC
:102B7000A069831B2068B0F80AC0019803FB0C0110
:102B80002068428904F1240000F045FDA07920F07E
:102B90004000A071206800E017E0408900FB09F8C0
:102BA00035E0A069B0420FD0D4E9020188420BD2CF
:102BB000216848780123324604F12401FEF710FD14
:102BC00010B10120E0714BE7A66121684989A06836
:102BD000B0FBF1F201FB120021684989A1EB00086A
:102BE000A84500D9A84621684989A068B0FBF1F240
:102BF00001FB120104F124000844424600900199AF
:102C000000F009FDA07940F04000A07100BF0198DC
:102C100040440190A0684044A060DBF800004044BC
:102C2000CBF80000A5EB0805002D7FF42DAF00BF09
:102C3000D4E90201884201D9A068E060A07940F09F
:102C40002000A07100200BE72DE9F74F8AB000218A
:102C50000A9801600B9800F0E1FA099009980028A1
:102C600003DA0B200DB0BDE8F08FE949099851F85F
:102C700020400CB90C20F5E70A980460207878B160
:102C80006078FEF7CFFC814609F0010040B90C984E
:102C900020B109F0040008B10A20E3E70020E1E7D1
:102CA00000202070099860706078FEF75BFC814618
:102CB00009F0010008B10320D4E70C9820B109F015
:102CC000040008B10A20CDE7607804F10A0202216D
:102CD000FEF765FC38B96089B0F5007F03DB6089D9
:102CE000B0F5805F01DD0120BCE7002739462046B2
:102CF000FEF7F4F80546012D01D09DBB32E0002619
:102D00001AE004F5F77000EB061898F8040070B1AB
:102D100098F80B00010698F80A0041EA004198F87B
:102D2000090041EA002098F80810084300E000205C
:102D300002A941F82600761C042EE2D3002606B133
:102D4000761E00BF02A850F8267027B139462046EB
:102D5000FEF7C4F800E0022005461DB1701C0646CF
:102D60000428EFD3032D01D101207BE70DB10D2005
:102D700078E73B20015D94F83C0041EA002061893E
:102D8000884201D00D206DE74620015D94F8470090
:102D900041EA002ABAF1000F0ED194F8570001065B
:102DA00094F8560041EA004194F8550041EA0020A9
:102DB00094F8541040EA010AC4F818A04020005DBD
:102DC000E070E078012804D0E078022801D00D20DE
:102DD00048E7E0780AFB00FA3D20005DA070A0788B
:102DE00018B1A078411E084008B10D203AE74120F3
:102DF000015D94F8420041EA002020816089C117FA
:102E000000EBD1614911228992FBF1F301FB1321FF
:102E100009B10D2026E74320015D94F8440041EA02
:102E200000200890089870B994F85300010694F8AF
:102E3000520041EA004194F8510041EA002094F820
:102E40005010084308903E20015D94F83F0041EA8D
:102E500000200190019808B90D2003E76089C1178F
:102E600000EBD1614911228992FBF1F201995144A1
:102E700011440791DDE90710884201D20D20F1E6E7
:102E8000DDE90710401AA178B0FBF1FBBBF1000FA0
:102E900001D10D20E6E6012540F6F670834500D30A
:102EA00002254FF6F670834500D303250BF102008F
:102EB0006061E76101983844206207983844A06255
:102EC000032D16D1208908B10D20CBE694F85F00C0
:102ED000010694F85E0041EA004194F85D0041EA81
:102EE000002094F85C1008436062606980000690DE
:102EF00014E0208908B90D20B4E6206A50446062CD
:102F0000022D02D16069400007E0207D00F0010041
:102F1000616901EB410100EB510006906089401EA0
:102F2000069908446189B0FBF1F0A169884201D992
:102F30000D2097E64FF0FF302061E0608020607147
:102F4000032D5AD194F8601094F8610041EA0020F2
:102F5000012852D1791C204600F0F4FCE8BB002087
:102F6000607194F82E1294F82F0241EA00204AF67C
:102F70005521884241D13320005D01063220005D99
:102F800041EA00413120005D41EA002094F8301010
:102F900008432049884230D194F81702010694F87A
:102FA000160241EA004194F8150241EA002094F823
:102FB00014120843184988421FD194F81B020106D5
:102FC00094F81A0241EA004194F8190241EA0020FB
:102FD00094F818120843206100E00EE094F81F02F4
:102FE000010694F81E0241EA004194F81D0241EAEC
:102FF000002094F81C120843E06025700748008800
:10300000401C80B205490880E08000202AE60000CC
:103010004C00002052526141727241615400002004
:103020002DE9F3410446019800782F2803D0019838
:1030300000785C2802D10198401C01900020A0601B
:1030400001980078202807D200212046FEF726FAB2
:1030500005460020606128E000BF01A92046FEF778
:1030600007F8054605B11FE02046FEF7DBF80546E8
:10307000A069C67A3DB1042D04D100BF06F004005A
:1030800000B9052510E006F0040000B10CE0676906
:10309000F87A00F0100008B9052505E039462068E7
:1030A00000F0E1F8A060D8E700BF2846BDE8FC8149
:1030B00070B504460D46E1B20548FDF747FD00BF77
:1030C00080210348FDF7A4FC0028F9D0204670BDFC
:1030D000003801402DE9F05F04460D46022D02D371
:1030E0006069A84202D84FF001098FE04FF0FF3924
:1030F0002078012804D002283CD003287ED157E054
:103100002F4607EB57076089B7FBF0F0216A00EB09
:10311000010A5146204600F015FC00B175E0384622
:103120007F1C6189B0FBF1F201FB120104F1300058
:1031300010F801806089B7FBF0F0216A00EB010A0A
:103140005146204600F0FEFB00B15EE06089B7FB0F
:10315000F0F100FB117104F13000405C48EA0028F6
:1031600005F0010010B14FEA181001E0C8F30B00A0
:1031700081464AE0B4F80AA00AEBDA704010B5FBC9
:10318000F0F0216A00EB010B5946204600F0DAFB13
:1031900000B13AE068006189B0FBF1F201FB120175
:1031A00004F130000E183078717840EA01292CE0E3
:1031B000B4F80AA04FEAEA700AEB90708010B5FBF1
:1031C000F0F0216A00EB010B5946204600F0BAFBF3
:1031D00000B11AE0A8006189B0FBF1F201FB120115
:1031E00004F130000E18F0780006B17840EA014092
:1031F000717840EA01203178084300E002E020F0D5
:10320000704902E04FF0010900BF00BF4846BDE829
:10321000F09F0000004870470000214670B502464C
:103220004FF0FF301568E5B1116800E0491C0D78DA
:10323000212D02D30D783A2DF8D10D783A2D0FD1EA
:10324000146814F8015BA5F130030A2B07D28C42F5
:1032500005D1022B03D218464D1C2946156070BDBE
:10326000002000BFFBE710B502468C7ECB7E44EA0F
:1032700003201378032B05D10C7D4B7D44EA0323F7
:1032800040EA034010BD000008B501211020FDF701
:1032900029F810208DF803004002ADF8000003204B
:1032A0008DF8020069460448FCF779FF4FF400519D
:1032B0000148FDF701F808BD00100140FFF7E4FFE9
:1032C00000F00CFD49A0FDF747FC012251A1524836
:1032D000FEF746FF51490870084600780D2828D1AE
:1032E0004FA0FDF739FC002211464AA0FEF7F6FB7D
:1032F0004A4908700846007888B954A0FDF72CFCAC
:10330000012244A10020FEF72BFF4449087001224E
:1033100040A14148FEF724FF4049087018E054A03E
:10332000FDF71AFC4FF400515848FCF7C3FF00BFEB
:10333000FEE73A48007840B13848017854A0FDF7DC
:103340000BFC5EA0FDF708FC02E067A0FDF704FCA3
:1033500000F026FD00F076F96DA0FDF7FDFB0122DF
:1033600075A17848FEF72AFF2C49087008460078B6
:10337000002823D14FF400514448FCF79DFF72A070
:10338000FDF7EAFB754B4FF4806275496D48FFF716
:1033900041F9224908700846007848B96F48016829
:1033A00070A0FDF7D9FB6E4977A0FDF7D5FB12E0C1
:1033B0001A4801787CA0FDF7CFFB0CE04FF40051D8
:1033C0003248FCF777FF7EA0FDF7C6FB1348017873
:1033D00081A0FDF7C1FB5B48FEF766F901220DA154
:1033E0000020FEF7BDFE00BFFEE700002A2A2A2AC1
:1033F0002A205350492020464C41534820CEC4BC7B
:10340000FECFB5CDB3CAB5D1E9202A2A2A2A2A0D82
:103410000A000000313A00005C000020000000209B
:103420003E3E464C41534820BBB9C3BBD3D0CEC46B
:10343000BCFECFB5CDB32CBCB4BDABBDF8D0D0B8BD
:10344000F1CABDBBAF2E2E2E0D0A00003E3E464CEB
:1034500041534820D2D1BEADB3C9B9A6B8F1CABD57
:10346000BBAFCEC4BCFECFB5CDB30D0A000000008B
:103470004552524F52203A20B8F1CABDBBAFCAA73D
:10348000B0DCA3A1A3A1A3A10D0A0000001001407C
:10349000A3A1A3A1A3A1CDE2B2BF20466C61736832
:1034A00020B9D2D4D8CEC4BCFECFB5CDB3CAA7B054
:1034B000DCA1A3282564290D0A000000A3A1A3A173
:1034C000A3A1BFC9C4DCD4ADD2F2203A20535049E5
:1034D00020466C617368B3F5CABCBBAFB2BBB3C95D
:1034E000B9A60D0A00000000A1B7CEC4BCFECFB53E
:1034F000CDB3B9D2D4D8B3C9B9A6A3ACBFC9D2D4BD
:10350000BDF8D0D0B6C1D0B4B2E2CAD40D0A000022
:103510002A2A2A2A2A2A20BCB4BDABBDF8D0D0CE94
:10352000C4BCFEB6C1C8A1B2E2CAD42E2E2E202A37
:103530002A2A2A2A2A0D0A00313A46617446732E35
:10354000747874008C100020A1B7B4F2BFAACEC466
:10355000BCFEB3C9B9A6A1A30D0A00000400002057
:10356000B0200020A1B7CEC4BCFEB6C1C8A1B3C96B
:10357000B9A62CB6C1B5BDD7D6BDDACAFDBEDDA38E
:10358000BA25640D0A000000A1B7B6C1C8A1B5C331
:10359000B5C4CEC4BCFECAFDBEDDCEAAA3BA0D0A18
:1035A00025730D0A00000000A3A1A3A1CEC4BCFE98
:1035B000B6C1C8A1CAA7B0DCA3BA282564290A00ED
:1035C000A3A1A3A1B4F2BFAACEC4BCFECAA7B0DC1B
:1035D000A1A30D0A00000000A3A1A3A1B4F2BFAAF9
:1035E000CEC4BCFECAA7B0DCA1A3282564290A006A
:1035F000F0B503461C460D46002000BF161EA2F182
:10360000010207D014F8017B15F801CBA7EB0C06DB
:10361000301EF3D0F0BD70B503460C4603E014F83D
:10362000015B03F8015B151EA2F10102F7D170BD29
:1036300030B5034601E003F8011B141EA2F101029C
:10364000F9D130BD30B599B020224F4909A8FCF717
:1036500069FD20224C49203101A8FCF763FD4BA0F5
:10366000FDF77AFA11AA69464FA0FEF738F84F49DC
:10367000087011984069801E1199897800FB01F546
:1036800011988078009900FB01F4A200A90048A0DD
:10369000FDF762FA52A0FDF75FFA13225BA15E48C4
:1036A000FEF78CFD4149087008460078002862D179
:1036B0005948C168FEF794F83C49087008460078FC
:1036C000002821D155A15448FEF76AFEA300AA00A4
:1036D0005BA15148FEF764FE00214F48FEF780F8D9
:1036E000324908704C48644B6449C268FEF792FF47
:1036F0002E49087062A0FDF72FFA2C48007818B9FF
:103700005E4967A0FDF728FA4348FDF7CDFF69A0A1
:10371000FDF722FA09A912A8FEF70BFE234908704B
:103720000846007828B109A8FEF727F91F49087054
:1037300007E012A8FDF7C8FF1C49087001A8FFF7B1
:103740002AF91A48007800281AD101A92FA0FFF7FA
:1037500049F8164908700846007818B95FA0FDF7C7
:10376000FBF902E066A0FDF7F7F9104801786DA0BB
:10377000FDF7F2F904E00D4801786DA0FDF7ECF9D2
:103780000A48007819B030BD243F00080A2A2A2AC6
:103790002A2A20C9E8B1B8D0C5CFA2BBF1C8A12060
:1037A0002A2A2A2A2A0D0A00313A000000000020A5
:1037B000A1B7C9E8B1B8D7DCBFD5BCE43A20253100
:1037C000306C75204B42A1A30AA1B7BFC9D3C3BFB8
:1037D000D5BCE43A2531306C75204B42A1A30A00D8
:1037E0000A2A2A2A2A2A20CEC4BCFEB6A8CEBBBAF0
:1037F000CDB8F1CABDBBAFD0B4C8EBB9A6C4DCB27A
:10380000E2CAD4202A2A2A2A2A0D0A00313A46611D
:103810007446732E747874008C1000200A746869E2
:103820007320686173206164642061206E65772075
:103830006C696E6520636F6E74656E740A000000BB
:10384000A1B744657669636520546F74616C20721A
:103850006F6F6D3A2531306C754B420AA1B74176D6
:1038600061696C61626C6520526F6F6D3A25313011
:103870006C754B420A00000004000020B0200020BC
:103880006861732066696E69736865642077726920
:10389000746520627920665F7072696E74660A00D2
:1038A000A1B746696C6520636F6E74656E74203ACB
:1038B00025730A000A2A2A2A2A2A20C4BFC2BCB4B5
:1038C000B4BDA8BACDD6D8C3FCC3FBB9A6C4DCB27C
:1038D000E2CAD4202A2A2A2A2A0D0A003E3E205271
:1038E000656E616D6520416E64204D6F7665204682
:1038F000696C652053756363657373A3A10A000047
:103900003E3E2052656E616D6520416E64204D6FB4
:1039100076652046696C6520446566656174A3A17F
:103920000A0000003E3E726573203D2025640A00B7
:103930006F70656E2066696C65206572726F7220AB
:103940003A25640070B504460D460026E06AA84298
:1039500010D0204600F098F906465EB96078012341
:103960002A4604F13001FDF73BFE10B14FF0FF3560
:103970000126E562304670BD2DE9F05F04460E4633
:103980001746022E02D36069B04202D84FF00208F7
:10399000B3E02078012804D0022852D0032872D145
:1039A00072E0B14609EB59096089B9FBF0F0216A70
:1039B00000EB010A51462046FFF7C4FF8046B8F1EC
:1039C000000F00D098E0484609F101096189B0FB79
:1039D000F1F201FB120104F130000D1806F00100B4
:1039E00020B1F9B2287861F31F1000E03846287042
:1039F000012020716089B9FBF0F0216A00EB010A17
:103A000051462046FFF79EFF8046B8F1000F00D0D8
:103A100072E06089B9FBF0F100FB119104F1300014
:103A20000D1806F0010010B1C7F3071005E0287863
:103A300000F0F000C7F30321084328700120207133
:103A40005AE0B4F80AA00AEBDA704010B6FBF0F0C6
:103A5000216A00EB010B59462046FFF773FF8046B1
:103A6000B8F1000F00D047E070006189B0FBF1F2BF
:103A700001FB120104F130000D182F70380A687034
:103A80000120207138E034E0B4F80AA04FEAEA706F
:103A90000AEB90708010B6FBF0F0216A00EB010B8E
:103AA00059462046FFF74EFF8046B8F1000F00D080
:103AB00022E0B0006189B0FBF1F201FB120104F1D8
:103AC00030000D18E8780006A97840EA01406978CE
:103AD00040EA01202978084300F0704007432F7026
:103AE000380A6870380CA870380EE8700120207110
:103AF00002E04FF0020800BF00BF4046BDE8F09F63
:103B0000F8B504460E4600BF6568002D00DAF8BD22
:103B100028466D1C04F10C010E543D2D0CDB6B4648
:103B20002A462068FEF78AFF0098A84201D10020AB
:103B300001E04FF0FF3005466560A068401CA060C2
:103B400000BFE4E72DE9F04104460E46022E02D301
:103B50006069B04201D8022727E0002721E0314602
:103B60002046FFF7B7FA054605B91DE0012D01D142
:103B7000022719E0681C08B9012715E00022314628
:103B80002046FFF7F9FE074607B10DE02069401C0B
:103B900030B12069401C2061607940F00100607103
:103BA0002E466069B042DAD800BF3846BDE8F081E1
:103BB00081760B0AC3760A0C02750B0E43757047AB
:103BC00070B50446204600F05FF80546002D59D137
:103BD000207803284FD1607901284CD162890021D7
:103BE00004F13000FFF724FD552184F82E12AA219C
:103BF00084F82F12522084F83000522131200155D0
:103C0000612132200155412133200155722184F870
:103C1000141284F81512412184F81612612184F8D7
:103C20001712217C84F81812208A010A84F81912CC
:103C30002069010C84F81A122069010E84F81B1205
:103C4000217B84F81C12A089010A84F81D12E06807
:103C5000010C84F81E12E068010E84F81F12E0695E
:103C6000401CE0626078012304F13001E26AFDF754
:103C7000F3FC00206071607800221146FDF78FFC94
:103C800000B10125284670BD2DE9F041044600270A
:103C90002079F8B1E56A607801232A4604F1300101
:103CA000FDF7DAFC08B1012714E000202071206A3A
:103CB000281AA16988420DD2E67809E0A069054476
:103CC000607801232A4604F13001FDF7C5FC761E19
:103CD000022EF3D23846BDE8F081000000B585B071
:103CE00001210420FCF7FEFA01218803FCF7FAFA0F
:103CF0004FF40070ADF8000018208DF80300032089
:103D00008DF8020069461748FCF749FA4FF48060C5
:103D1000ADF8000004208DF8030069461148FCF757
:103D20003EFA4FF4E13001900020ADF810000C2075
:103D3000ADF80E000020ADF80C00ADF80A00ADF8AB
:103D4000080001A90848FCF795FE012240F2255120
:103D50000548FCF76AFE01210348FCF74DFE05B05B
:103D600000BD0000000801400038014070B5054664
:103D70002C4684B1206870B12068007858B1206862
:103D8000C088A188884206D121684878FDF74AFC9E
:103D900000F0010008B1092070BD0020FCE7000020
:103DA00010B51EA0FCF7D8FE0A2227A12948FEF76D
:103DB00005FA2949087008460078002820D127A074
:103DC000FCF7CAFE324B262232492248FEF736FE65
:103DD000214908700846007848B92D4801682EA08E
:103DE000FCF7BAFE2B4935A0FCF7B6FE04E01A48F2
:103DF00001783AA0FCF7B0FE1648FDF755FC0CE040
:103E0000154801783BA0FCF7A7FE4FF400513D4850
:103E1000FCF750FA3CA0FCF79FFE10BD0D0A2A2AC1
:103E20002A2A2A2A20BCB4BDABBDF8D0D0CEC4BC4F
:103E3000FED0B4C8EBB2E2CAD42E2E2E202A2A2AF3
:103E40002A2A2A0D0A000000313A46617446732E70
:103E5000747874008C10002000000020A1B7B4F228
:103E6000BFAA2FB4B4BDA846617446732E7478748B
:103E7000CEC4BCFEB3C9B9A6A3ACCFF2CEC4BCFEBF
:103E8000D0B4C8EBCAFDBEDDA1A30D0A000000003E
:103E9000040000200C000020A1B7CEC4BCFED0B4AA
:103EA000C8EBB3C9B9A6A3ACD0B4C8EBD7D6BDDABA
:103EB000CAFDBEDDA3BA25640A000000A1B7CFF297
:103EC000CEC4BCFED0B4C8EBB5C4CAFDBEDDCEAA1C
:103ED000A3BA0D0A25730D0A00000000A3A1A3A137
:103EE000CEC4BCFED0B4C8EBCAA7B0DCA3BA2825A8
:103EF00064290A007265735F666C6173683D2564AE
:103F00000000000000100140A3A1A3A1B4F2BFAAC9
:103F10002FB4B4BDA8CEC4BCFECAA7B0DCA1A30D0B
:103F20000A000000313A546573744469720000005D
:103F30000000000000000000000000000000000081
:103F400000000000313A546573744469722F74653F
:103F500073746469722E74787400000000000000AD
:103F6000000000040002000180004000200010005A
:103F70000800040002000000008000400020001043
:103F800000080040002000100008000400020000AB
:103F9000B03F0008000000205C000000780B000823
:103FA0000C4000085C00002054280000880B00082A
:103FB0000000000000000000000000004E657720B7
:103FC00046696C652053797374656D20546573740C
:103FD000204261736564206F662046617446730DEC
:103FE0000A00000000A0000000000000010203041D
:103FF0000102030406070809020406080000000085
:0C400000000000000000000000000000B4
:0400000508000101ED
:00000001FF
