:020000040800F2
:100000001804002001010008F90600089B040008FC
:10001000F5060008EB010008750A00080000000062
:1000200000000000000000000000000011080008AF
:10003000EF01000800000000FB060008FD080008B2
:100040001B0100081B0100081B0100081B01000820
:100050001B0100081B0100081B0100081B01000810
:100060001B0100081B0100081B0100081B01000800
:100070001B0100081B0100081B0100081B010008F0
:100080001B0100081B0100081B0100081B010008E0
:100090001B0100081B0100081B0100081B010008D0
:1000A0001B0100081B0100081B0100081B010008C0
:1000B0001B0100081B0100081B0100081B010008B0
:1000C0001B0100081B0100081B0100081B010008A0
:1000D0001B0100081B0100081B0100081B01000890
:1000E0001B0100081B0100081B010008DFF80CD0F1
:1000F00000F04AF8004800471D0E000818040020D0
:100100000648804706480047FEE7FEE7FEE7FEE7B1
:10011000FEE7FEE7FEE7FEE7FEE7FEE7010900086F
:10012000ED0000082DE9F05F0546002092469B4651
:1001300088460646814640241BE0284641464746FD
:10014000224600F042F853465A46C01A914110D355
:1001500011461846224600F029F82D1A67EB0108CF
:100160004F4622460120002100F020F817EB00093D
:100170004E41201EA4F10104DFDC484631462A46E8
:100180004346BDE8F09F0000064C074D06E0E068DE
:1001900040F0010394E8070098471034AC42F6D3CE
:1001A000FFF7A8FFAC0E0008CC0E0008202A04DBE5
:1001B000203A00FA02F1002070479140C2F120037A
:1001C00020FA03F3194390407047202A04DB203AB9
:1001D00021FA02F00021704721FA02F3D040C2F167
:1001E0002002914008431946704700BFFEE7704760
:1001F00070B506460C46154601212F4800F07CF9E3
:1002000000BF2E492C4800F056F90028F9D00022F2
:100210003146294800F020FA00BF2949264800F05D
:100220004AF90028F9D03146234800F01EFA00BFF1
:100230002349891E204800F03EF90028F8D001210A
:100240001D4800F059F900BF1C491B4800F033F964
:100250000028F9D001223146174800F0FDF900BF0F
:100260001649491C144800F026F90028F8D018E077
:10027000012D07D10021104800F011F90E4800F0BF
:10028000E7F9207000BF0D493F310B4800F013F92A
:100290000028F8D0084800F0DBF92070681EC5B2CD
:1002A000641C002DE4D10121034800F031F9012143
:1002B000014800F0F4F870BD005400400100030054
:1002C0008200070070B504460D460121194800F070
:1002D00013F900BF1849174800F0EDF80028F9D0CD
:1002E0000022A021134800F0B7F900BF13491148BC
:1002F00000F0E1F80028F9D021460E4800F0B5F9E9
:1003000000BF0E49891E0B4800F0D5F80028F8D030
:100310002946084800F0A9F900BF0849891C05488A
:1003200000F0C9F80028F8D00121024800F0F0F8E8
:1003300070BD00000054004001000300820007006F
:1003400010B500BF01210D4800F0D6F800BF0C49E0
:100350000A4800F0E9F80028F9D00022A021074857
:1003600000F07AF90649491C044800F0DDF800283D
:10037000E8D00121014800F0CBF810BD0054004046
:10038000010000102DE9F041024600250026002062
:1003900000230024002791F803C00CF00F0591F80A
:1003A00003C00CF0100CBCF1000F03D091F802C098
:1003B0004CEA050591F800C0BCF1000F31D014687B
:1003C00000202BE04FF0010C0CFA00F3B1F800C054
:1003D0000CEA03069E4220D183004FF00F0C0CFA6A
:1003E00003F7BC4305FA03FC4CEA040491F803C08C
:1003F000BCF1280F06D14FF0010C0CFA00FCC2F83A
:1004000014C00AE091F803C0BCF1480F05D14FF0C9
:10041000010C0CFA00FCC2F810C0401C0828D1D313
:100420001460B1F800C0BCF1FF0F34DD5468002047
:100430002EE000F1080C4FF0010808FA0CF3B1F8B7
:1004400000C00CEA03069E4221D183004FF00F0C3E
:100450000CFA03F7BC4305FA03FC4CEA040491F8D8
:1004600003C0BCF1280F05D100F1080C08FA0CF804
:10047000C2F8148091F803C0BCF1480F07D100F115
:10048000080C4FF0010808FA0CF8C2F81080401C64
:100490000828CED35460BDE8F08100BFFEE721B14B
:1004A000028842F48062028004E002884FF6FF3343
:1004B0001A400280704770B50246002400250023D0
:1004C0000020958A138B1B0445EA030626F07F441F
:1004D00004EA01068E4201D1012000E0002070BD37
:1004E00021B1028842F00102028004E002884FF646
:1004F000FE731A400280704721B1028842F4807274
:10050000028004E002884FF6FF631A4002807047C1
:1005100021B1028842F40072028004E002884FF6A2
:10052000FF531A40028070470CB50246002000239A
:100530000193009300920B0F019321F07F41019BE7
:100540001BB1009B1433009303E0090C009B18338C
:100550000093009B1B680B400BB1012000E00020C2
:100560000CBD00002DE9F04385B004460D46002681
:10057000B1460427DFF8CC80A6884FF6C07006404D
:10058000684600F0DBF8DDF808802F48B8FBF0F093
:100590001FFA80F946EA0906A68020884FF6FE7108
:1005A0000840208000262949286888420CD82868FD
:1005B0004000B8FBF0F087B2042F00DA04273E4376
:1005C00009F10100208427E0E8884BF6FF7188429A
:1005D00006D1286800EB4000B8FBF0F087B209E0D4
:1005E000286800EBC00101EB0010B8FBF0F087B207
:1005F00047F48047C7F30B0008B947F0010747F4F9
:10060000004006434FF4967009FB00F04FF47A71F6
:1006100090FBF1F0401C2084A683208840F001006C
:10062000208026884FF6F5300640A888698908435F
:1006300006432680A88929890843208105B0BDE8A2
:10064000F083000000127A0040420F00A0860100F3
:100650000146088AC0B2704712B141F0010102E0C0
:100660004FF6FE7319400182704701827047000007
:1006700000B585B00121480500F040F801210820AF
:1006800000F04CF84020ADF800001C208DF803006D
:1006900003208DF8020069461348FFF773FE80209F
:1006A000ADF8000069461048FFF76CFE4FF480601B
:1006B000ADF80E000001ADF810000C4801904BF6AB
:1006C000FF70ADF80A000020ADF808005F20ADF81B
:1006D0000C0001A90648FFF745FF01210448FFF778
:1006E000FFFE05B000BD0000000C0140801A0600AE
:1006F0000054004000BFFEE77047704729B1064A2A
:10070000D2690243044BDA6104E0034AD2698243AE
:10071000014BDA61704700000010024029B1064A1F
:1007200092690243044B9A6104E0034A926982434E
:10073000014B9A61704700000010024030B5002163
:100740000022002400232D4D6D6805F00C0121B11D
:10075000042905D0082923D105E0294D056022E0B0
:10076000274D05601FE0254D6D6805F47012234D7F
:100770006D6805F48034022505EB92421CB9214DC9
:10078000554305600BE01D4D6D6805F400351DB146
:100790001C4D5543056002E0194D5543056002E0CC
:1007A000174D056000BF00BF144D6D6805F0F001E6
:1007B0000909154D6B5C0568DD4045600F4D6D689E
:1007C00005F4E061090A104D6B5C4568DD40856009
:1007D0000A4D6D6805F46051C90A0B4D6B5C4568A4
:1007E000DD40C560054D6D6805F44041890B074D3E
:1007F0006B5CC568B5FBF3F5056130BD00100240C8
:1008000000127A0000093D000000002010000020C6
:10081000704710B500F002F810BD00000CB50020C4
:10082000019000903348006840F4803031490860FE
:1008300000BF3048006800F4003000900198401C70
:100840000190009818B90198B0F5A06FF1D129482E
:10085000006800F4003010B10120009001E0002099
:1008600000900098012843D12348006840F0100010
:10087000214908600846006820F003000860084627
:10088000006840F0020008601A4840681949486052
:100890000846406848600846406840F48060486008
:1008A0000846406820F47C1048600846406840F4E0
:1008B000E81048600846006840F08070086000BF9B
:1008C0000C48006800F000700028F9D00948406822
:1008D00020F00300074948600846406840F00200E5
:1008E000486000BF0348406800F00C000828F9D1B8
:1008F0000CBD0000001002400020024070470000C4
:1009000010B51348006840F001001149086008461E
:100910004068104908400E494860084600680E4982
:1009200008400B4908600846006820F480200860F1
:100930000846406820F4FE0048604FF41F008860BD
:10094000FFF767FF4FF000600449086010BD00002A
:10095000001002400000FFF8FFFFF6FE08ED00E087
:1009600021B1828942F40052828104E082894DF6ED
:10097000FF731A408281704702460020B1F5007F64
:1009800000D100BF13880B400BB1012000E0002014
:10099000704700002DE9F04786B005460E4600245A
:1009A000A24600BFA1460027B08900B100BF2F4674
:1009B0002C8A4CF6FF700440F08804432C82AC89EA
:1009C0004EF6F3100440B08831890843718908431A
:1009D0000443AC81AC8A4FF6FF400440B089044325
:1009E000AC8201A8FFF7AAFE1F48874202D1DDF8BA
:1009F00010A001E0DDF80CA0A88900F4004040B18F
:100A00000AEBCA0000EB0A1031684900B0FBF1F8AC
:100A100007E00AEBCA0000EB0A1031688900B0FB5E
:100A2000F1F86420B8FBF0F004012009642101FB17
:100A30001089A88900F4004040B1322000EBC900C1
:100A4000B0FBF1F000F00700044308E0322000EBB7
:100A500009106421B0FBF1F000F00F0004432C8179
:100A600006B0BDE8F087000000380140C1F308027D
:100A70008280704700BFFEE700B585B001210420E9
:100A8000FFF74CFE01218803FFF748FE18208DF880
:100A900013004FF40070ADF8100003208DF8120021
:100AA00004A91348FFF76EFC04208DF81300000220
:100AB000ADF8100004A90E48FFF764FC4FF4E130D4
:100AC00000900020ADF80C000C20ADF80A000020CA
:100AD000ADF80600ADF80400ADF808006946054819
:100AE000FFF758FF01210348FFF73AFF05B000BDAB
:100AF00000080140003801400FB4054B10B503A9B0
:100B0000044A029800F018F810BC5DF814FB0000CD
:100B1000F90D00081400002002E008C8121F08C1E7
:100B2000002AFAD170477047002001E001C1121F6E
:100B3000002AFBD1704700002DE9FF4F8DB09B4686
:100B40000F460446002606E025280BD05A460F998A
:100B50009047641C761C20780028F5D111B03046EF
:100B6000BDE8F08F0025A8460122984900E0054322
:100B700014F8013F203B02FA03F00842F7D1207835
:100B80002E2817D114F8010F45F004052A280ED09D
:100B90006FF02F022078A0F1300109290AD808EB64
:100BA000880102EB410100EB0108641CF2E757F8F1
:100BB000048B641C20786C280DD004DC4C2812D0E7
:100BC0006A2811D104E074280DD07A280CD10AE0EB
:100BD00045F4001507E0617845F48015814202D1A3
:100BE000641C05F58015641C2278692A45D008DC50
:100BF000002AB3D0582A69D0632A10D0642A08D1B9
:100C00003BE0702A67D0732A13D0752A5CD0782A0B
:100C10005CD010465A460F999047761CD3E017F8DF
:100C2000040B8DF8000000208DF80100E94601203A
:100C300003E057F8049B4FF0FF3069074FF00005C1
:100C400001D40AE06D1C45450DDA8542FADB19F83E
:100C500005100029F6D106E06D1C8542FCDB19F871
:100C600005100029F8D12E4404E019F8010B5A466A
:100C70000F9990476D1EF8D2A5E00A200021CDE91A
:100C80000801C5F3025002280DD001CFC117031E81
:100C900071F100030DDA4FF0000CD0EB0C006CEB9F
:100CA00001012D2308E0FF1D27F00707F7E80201E7
:100CB000EDE72B0504D52B238DF8283001233BE0ED
:100CC000EB0739D02023F7E70A2000E010200021AD
:100CD000CDE9080107E01020002145F00405CDE929
:100CE00008014FF00808C5F3025002280FD001CFC9
:100CF00000214FF0000A2B071FD5702A0DD0DDE927
:100D000008C38CF0100C5CEA030C0CD015E0FF1D3E
:100D100027F00707F7E80201EBE740228DF82820CB
:100D20004FF0010A0BE050EA010306D030238DF8A2
:100D300028308DF8292002239A46582A04D024A26C
:100D40000DF120090B9209E026A2F9E7DDE908235D
:100D5000FFF7E8F90B9B9B5C09F8013D50EA0102A3
:100D6000F4D1ADEB090020300890680701D44FF0B2
:100D700001080899884502DDA8EB010000E0002089
:100D80008046002506E00AA85A46405D0F99904724
:100D90006D1C761C5545F6DB04E030205A460F9951
:100DA0009047761CB8F10001A8F10108F5DC05E0D8
:100DB00019F8010B5A460F999047761C0899481E5E
:100DC00008900029F4DC641CC5E600000928010035
:100DD00030313233343536373839616263646566B1
:100DE0000000000030313233343536373839414273
:100DF000434445460000000070B504460D46E1B28C
:100E00000548FFF733FE00BF80210348FFF7B4FD1C
:100E10000028F9D0204670BD003801403EB50024BE
:100E2000FFF72AFEFFF724FC10A0FFF765FEBB21A9
:100E30000B20FFF747FAFFF783FA012269460B20E0
:100E4000FFF7D6F99DF800100EA0FFF755FE09E058
:100E5000601CC4B29DF800100FA0FFF74DFE0A2CD5
:100E600000D100E0F4E700BF00203EBDD5E2B8F6B7
:100E7000CAC7493243CDA8D1B6CAB5D1E9A3A10AA0
:100E800000000000B6C1C8A1B5BDB5C4CAFDBEDD35
:100E9000CEAA25640A000000BDD3CAD5B5BDB5C42D
:100EA000CAFDBEDDCEAA307825780A00CC0E000837
:100EB0000000002018000000180B0008E40E0008D5
:100EC0001800002000040000280B000800000000AB
:100ED00001020304010203040607080902040608CC
:040EE000000000000E
:0400000508000101ED
:00000001FF
