:020000040800F2
:1000000018040020010100082D0400082F03000837
:1000100029040008EB01000889070008000000001F
:10002000000000000000000000000000250500089E
:10003000EF010008000000002F040008110600086E
:100040001B0100081B0100081B0100081B01000820
:100050001B0100081B0100081B0100081B01000810
:100060001B0100081B0100081B0100081B01000800
:100070001B0100081B0100081B0100081B010008F0
:100080001B0100081B0100081B0100081B010008E0
:100090001B0100081B0100081B0100081B010008D0
:1000A0001B0100081B0100081B0100081B010008C0
:1000B0001B0100081B0100081B0100081B010008B0
:1000C0001B0100081B0100081B0100081B010008A0
:1000D0001B0100081B0100081B0100081B01000890
:1000E0001B0100081B0100081B010008DFF80CD0F1
:1000F00000F04AF8004800479D100008180400204E
:100100000648804706480047FEE7FEE7FEE7FEE7B1
:10011000FEE7FEE7FEE7FEE7FEE7FEE7150600085E
:10012000ED0000082DE9F05F0546002092469B4651
:1001300088460646814640241BE0284641464746FD
:10014000224600F042F853465A46C01A914110D355
:1001500011461846224600F029F82D1A67EB0108CF
:100160004F4622460120002100F020F817EB00093D
:100170004E41201EA4F10104DFDC484631462A46E8
:100180004346BDE8F09F0000064C074D06E0E068DE
:1001900040F0010394E8070098471034AC42F6D3CE
:1001A000FFF7A8FFEC1000080C110008202A04DB60
:1001B000203A00FA02F1002070479140C2F120037A
:1001C00020FA03F3194390407047202A04DB203AB9
:1001D00021FA02F00021704721FA02F3D040C2F167
:1001E0002002914008431946704700BFFEE7704760
:1001F000002001E0411CC8B20A28FBDB70472DE952
:10020000F04102460025002600200023002400279C
:1002100091F803C00CF00F0591F803C00CF0100C1E
:10022000BCF1000F03D091F802C04CEA050591F82B
:1002300000C0BCF1000F31D0146800202BE04FF05B
:10024000010C0CFA00F3B1F800C00CEA03069E4260
:1002500020D183004FF00F0C0CFA03F7BC4305FAD2
:1002600003FC4CEA040491F803C0BCF1280F06D14A
:100270004FF0010C0CFA00FCC2F814C00AE091F82F
:1002800003C0BCF1480F05D14FF0010C0CFA00FC83
:10029000C2F810C0401C0828D1D31460B1F800C0C7
:1002A000BCF1FF0F34DD546800202EE000F1080C93
:1002B0004FF0010808FA0CF3B1F800C00CEA03068D
:1002C0009E4221D183004FF00F0C0CFA03F7BC4380
:1002D00005FA03FC4CEA040491F803C0BCF1280FB2
:1002E00005D100F1080C08FA0CF8C2F8148091F856
:1002F00003C0BCF1480F07D100F1080C4FF0010812
:1003000008FA0CF8C2F81080401C0828CED35460BC
:10031000BDE8F0810246002093680B400BB101203C
:1003200000E000207047416170470161704700BFE5
:10033000FEE710B500F002F810BD000008B501217D
:10034000042000F075F814208DF803000820ADF8A3
:10035000000003208DF8020069460548FFF74FFFB3
:100360000420ADF8000069460148FFF748FF08BDCA
:100370000008014070B50446002523E004F0800029
:1003800020B108211148FFF7D0FF03E008210F48F2
:10039000FFF7C9FFFFF72CFF04210C48FFF7C5FF4B
:1003A000FFF726FF04210948FFF7BDFF072D03D102
:1003B00008210648FFF7B9FF6006040EFFF718FF93
:1003C000681CC5B2082DD9DB70BD000000080140D3
:1003D00010B504210A48FFF7A8FF08210848FFF7D5
:1003E000A4FFFFF705FF08210548FFF79CFFFFF773
:1003F000FFFE04210248FFF796FFFFF7F9FE10BD4C
:100400000008014010B508210648FFF78CFF0421C1
:100410000448FFF78AFFFFF7EBFE08210148FFF7CA
:1004200084FF10BD0008014000BFFEE77047704721
:1004300029B1064A92690243044B9A6104E0034AD7
:1004400092698243014B9A6170470000001002409C
:1004500030B500210022002400232D4D6D6805F0E9
:100460000C0121B1042905D0082923D105E0294D2B
:10047000056022E0274D05601FE0254D6D6805F4FD
:100480007012234D6D6805F48034022505EB92420D
:100490001CB9214D554305600BE01D4D6D6805F4F9
:1004A00000351DB11C4D5543056002E0194D554303
:1004B000056002E0174D056000BF00BF144D6D6878
:1004C00005F0F0010909154D6B5C0568DD404560DC
:1004D0000F4D6D6805F4E061090A104D6B5C4568CD
:1004E000DD4085600A4D6D6805F46051C90A0B4D09
:1004F0006B5C4568DD40C560054D6D6805F44041A5
:10050000890B074D6B5CC568B5FBF3F5056130BD24
:100510000010024000127A0000093D000000002097
:1005200010000020704710B500F002F810BD000068
:100530000CB50020019000903348006840F48030F2
:100540003149086000BF3048006800F40030009076
:100550000198401C0190009818B90198B0F5A06F5F
:10056000F1D12948006800F4003010B1012000905A
:1005700001E0002000900098012843D12348006842
:1005800040F01000214908600846006820F0030090
:1005900008600846006840F0020008601A48406899
:1005A000194948600846406848600846406840F479
:1005B000806048600846406820F47C104860084627
:1005C000406840F4E81048600846006840F08070D9
:1005D000086000BF0C48006800F000700028F9D0E7
:1005E0000948406820F00300074948600846406811
:1005F00040F00200486000BF0348406800F00C0073
:100600000828F9D10CBD0000001002400020024073
:100610007047000010B51348006840F00100114910
:10062000086008464068104908400E49486008467E
:1006300000680E4908400B4908600846006820F42D
:10064000802008600846406820F4FE0048604FF4AF
:100650001F008860FFF767FF4FF0006004490860E3
:1006600010BD0000001002400000FFF8FFFFF6FE82
:1006700008ED00E021B1828942F40052828104E059
:1006800082894DF6FF731A4082817047024600202E
:10069000B1F5007F00D100BF13880B400BB10120E2
:1006A00000E00020704700002DE9F04786B00546C5
:1006B0000E460024A24600BFA1460027B08900B123
:1006C00000BF2F462C8A4CF6FF700440F08804438C
:1006D0002C82AC894EF6F3100440B088318908436F
:1006E000718908430443AC81AC8A4FF6FF40044053
:1006F000B0890443AC8201A8FFF7AAFE1F488742D5
:1007000002D1DDF810A001E0DDF80CA0A88900F40A
:10071000004040B10AEBCA0000EB0A103168490002
:10072000B0FBF1F807E00AEBCA0000EB0A103168F1
:100730008900B0FBF1F86420B8FBF0F00401200957
:10074000642101FB1089A88900F4004040B13220E7
:1007500000EBC900B0FBF1F000F00700044308E033
:10076000322000EB09106421B0FBF1F000F00F0023
:1007700004432C8106B0BDE8F0870000003801403A
:10078000C1F308028280704700BFFEE700B585B064
:1007900001210420FFF74CFE01218803FFF748FEEA
:1007A00018208DF813004FF40070ADF810000320EE
:1007B0008DF8120004A91348FFF721FD04208DF8DD
:1007C00013000002ADF8100004A90E48FFF717FD52
:1007D0004FF4E13000900020ADF80C000C20ADF893
:1007E0000A000020ADF80600ADF80400ADF80800DE
:1007F00069460548FFF758FF01210348FFF73AFF14
:1008000005B000BD00080140003801400FB4054BA1
:1008100010B503A9044A029800F018F810BC5DF85E
:1008200014FB0000610F00081400002002E008C85B
:10083000121F08C1002AFAD170477047002001E05A
:1008400001C1121F002AFBD1704700002DE9FF4FA4
:100850008DB00F460546002606E025280BD0DDE9C1
:100860000F1290476D1C761C28780028F5D111B026
:100870003046BDE8F08F0024A246A1460122EC4993
:1008800000E0044315F8013F203B02FA03F0084260
:10089000F7D128782A2810D06FF02F022878A0F1FD
:1008A0003001092914D80AEB8A0102EB410144F016
:1008B000020400EB010A6D1CF0E701CF5FEA000AB9
:1008C00003D544F40054CAF1000A44F002046D1C3C
:1008D00028782E2817D115F8010F44F004042A288F
:1008E0000ED06FF02F022878A0F1300109290AD824
:1008F00009EB890102EB410100EB01096D1CF2E7F4
:1009000057F8049B6D1C28786C280FD006DC4C2807
:1009100017D068280DD06A2814D104E0742810D0AC
:100920007A280FD10DE044F400140AE044F4801456
:1009300001E044F440146978814202D104F5801446
:100940006D1C6D1C2A786E2A1FD00CDC632A31D0F6
:1009500004DC002A8BD0582A11D1A3E0642A68D085
:10096000692A0CD165E0732A2ED004DC6F2A73D07B
:10097000702A04D19BE0752A6FD0782A6ED0104679
:10098000DDE90F129047761C50E1C4F302500228B3
:1009900006D0032809D0042801CF09D0066045E11C
:1009A00001CFF117C0E9006140E101CF06803DE1D0
:1009B00006703BE117F8040B8DF8000000208DF85D
:1009C0000100EB46012003E057F804BB4FF0FF3075
:1009D00061074FF0000102D40DE008F101018846E3
:1009E00049450FDA8045F8DB1BF808100029F4D1DF
:1009F00008E008F1010188468142FADB1BF8081083
:100A00000029F6D1DDE90F23AAEB08008146214633
:100A100000F036F9304400EB080604E0DDE90F127F
:100A20001BF8010B9047B8F10108F7D22146484660
:100A3000F7E00A21C4F302534FF0000B0891022B98
:100A400004D001CFC117032B09D00AE0FF1D27F006
:100A50000707F7E8020108E032E01FE020E000B2FB
:100A6000C117042B01D140B2C117031E71F100035D
:100A700007DA4FF0000CD0EB0C006CEB01012D23DA
:100A800002E0230504D52B238DF82430012303E055
:100A9000E30701D02023F7E7984658E00A2110E049
:100AA00010210EE010204FF0000B08900CE01021F8
:100AB0004FF0000B44F004044FF00809089103E0E4
:100AC00008214FF0000B0891C4F30253022B04D00D
:100AD00001CF0021032B06D006E0FF1D27F00707FA
:100AE000F7E8020103E080B2042B00D1C0B24FF05E
:100AF000000823072BD5702A07D0DDF820C08CF022
:100B0000100C5CEA0B0C05D00EE040238DF824306D
:100B1000012308E050EA010306D030238DF8243089
:100B20008DF8252002239846DDF820C08CF0080CB3
:100B30005CEA0B0C0BD150EA010301D1630706D527
:100B400030238DF824304FF00108A9F10109582A0B
:100B500004D038A20B9208AA0A920BE03AA2F9E755
:100B60005B46089AFFF7DEFA0B9B9B5C0A9A521EC3
:100B70000A92137050EA0102F2D10A98ADEB00001C
:100B800000F1200B600702D524F4803401E04FF01F
:100B90000109D94502DDA9EB0B0000E0002000EBC4
:100BA0000B0141440890AAEB010AE00306D4DDE9F9
:100BB0000F232146504600F063F806444FF0000929
:100BC00008E009A911F80900DDE90F12904709F1C1
:100BD0000109761CC145F4DBE0030CD5DDE90F23E8
:100BE0002146504600F04CF8064404E0DDE90F12BF
:100BF00030209047761C0899481E08900029F5DCA3
:100C000008E00A980A990078491C0A91DDE90F1258
:100C10009047761CBBF10001ABF1010BF1DC2146E2
:100C20005046DDE90F2300F019F806446D1C1BE661
:100C300009280100303132333435363738396162B2
:100C40006364656600000000303132333435363776
:100C50003839414243444546000000002DE9F04147
:100C6000044600251E461746880404D405E039468C
:100C70002020B0476D1C641EF9D52846BDE8F081E0
:100C80002DE9F041044600251E469046C80301D5D3
:100C9000302700E02027880404D505E04146384687
:100CA000B0476D1C641EF9D52846BDE8F08170B5CB
:100CB0000446FFF78DFB2046FFF75CFB00F0B4F91C
:100CC0000546FFF79FFB00F077F9284670BD2DE938
:100CD000F04106460F461546FFF77AFBA020FFF7C6
:100CE00049FB00F0A1F900B125E0F8B2FFF742FBA3
:100CF00000F09AF900B11EE0FFF76AFBA120FFF7B0
:100D000039FB00F091F900B115E000240CE000F08F
:100D100069F93055681EA04202D000F033F901E0B5
:100D200000F04AF9601C84B2AC42F0DBFFF76AFBCA
:100D30000120BDE8F081FFF765FB0020F9E710B561
:100D4000002406E02046641CB0F5803F01D301205A
:100D500010BDA020FFF7ABFF0028F3D100BFF7E7DD
:100D60002DE9F047074688469146464600242CE088
:100D700014B106F00700E8B9FFF744FB00250AE0CC
:100D8000FFF726FBA020FFF7F5FA00F04DF900B9B8
:100D900004E0681C85B2B5F57A7FF1DB00BFB5F5DC
:100DA0007A7F00D11DE0F0B2FFF7E4FA00F03CF9E1
:100DB00000B116E0385DFFF7DDFA00F035F900B15B
:100DC0000FE0701C86B2601C84B24C45D0DBFFF78C
:100DD00019FBFFF7B4FF012800D102E00120BDE8B4
:100DE000F087FFF70FFB0020F9E7000010B5C0B057
:100DF000A020FFF75CFF012805D12CA0FFF706FD1E
:100E0000002040B010BD002403E020A90C55601C58
:100E100084B2802CF9DB8022002120A8FFF7A0FFFC
:100E200020B928A0FFF7F2FC0020EAE729A0FFF78D
:100E3000EDFC802200216846FFF749FF20B929A078
:100E4000FFF7E4FC0020DCE72AA0FFF7DFFC2DA081
:100E5000FFF7DCFC002421E01DF8040020A9095D57
:100E6000884209D01DF8041029A0FFF7CFFC2AA062
:100E7000FFF7CCFC0020C4E7E11704EB1171091166
:100E8000A4EB011119B914B120A0FFF7BFFC1DF8A4
:100E900004102BA0FFF7BAFC601C84B2802CDBDBB3
:100EA00029A0FFF7B3FC0120ABE70000C3BBD3D000
:100EB000BCECB2E2B5BDB4AED0D0454550524F4DBA
:100EC0000D0A0000D0B4454550524F4DB3F6B4ED75
:100ED0000D0A0000D0B4454550524F4DB3C9B9A6D4
:100EE0000D0A0000B6C1454550524F4DB3F6B4ED62
:100EF0000D0A0000B6C1454550524F4DB3C9B9A6C1
:100F00000D0A0000726561646275663A0A000000AD
:100F10003078253032582000B4EDCEF3A3BA4545E1
:100F200050524F4DB6C1B3F6BACDD0B4C8EBB5C42C
:100F3000CAFDBEDDB2BBD2BBD6C20D0A00000000A6
:100F400020253032580000000A454550524F4D20B0
:100F5000B6C1D0B4B2E2CAD4B3C9B9A60D0A000072
:100F600070B504460D46E1B20548FFF709FC00BF25
:100F700080210348FFF78AFB0028F9D0204670BD86
:100F80000038014010B508210A48FFF7CCF9FFF7F7
:100F90002FF904210748FFF7C8F9FFF729F90421C1
:100FA0000448FFF7C0F9FFF723F908210148FFF7CC
:100FB000BCF910BD0008014010B508210848FFF732
:100FC000B4F9FFF715F904210548FFF7AEF9FFF76B
:100FD0000FF904210248FFF7A6F9FFF709F910BD40
:100FE0000008014070B50024002516E06006040EDC
:100FF00004210C48FFF799F9FFF7FAF8082109488E
:10100000FFF788F908B1601CC4B204210548FFF756
:101010008AF9FFF7EDF8681CC5B2082DE6DB20461B
:1010200070BD00000008014010B508210D48FFF711
:101030007CF9FFF7DDF804210A48FFF776F9FFF79E
:10104000D7F808210748FFF765F908B1012400E047
:10105000002404210348FFF766F9FFF7C9F820468A
:1010600010BD00000008014008B501211020FFF765
:10107000DFF910208DF803004002ADF800000320D6
:101080008DF8020069460448FFF7B9F84FF40051A3
:101090000148FFF74AF908BD00100140FFF776FB51
:1010A000FFF747F9FFF7E0FF09A0FFF7AFFBFFF7F6
:1010B0009DFE28B14FF400510B48FFF734F905E0CD
:1010C0000948C06880F400500749C86000BFFEE7C7
:1010D000454550524F4D20C8EDBCFEC4A3C4E2208C
:1010E0006932633A0A000000001001400C11000848
:1010F00000000020180000002C080008241100083F
:1011000018000020000400003C0800080000000057
:101110000102030401020304060708090204060889
:0411200000000000CB
:0400000508000101ED
:00000001FF
