:020000040800F2
:100000002004002001010008090100086D02000819
:1000100071020008490100082306000800000000E2
:100020000000000000000000000000006D03000858
:100030004D01000800000000750200085904000886
:100040001B0100081B0100081B0100081B01000820
:100050001B0100081B0100081B0100081B01000810
:100060001B0100081B0100081B0100081B01000800
:100070001B0100081B0100081B0100081B010008F0
:100080001B0100081B0100081B0100081B010008E0
:100090001B0100081B0100081B0100081B010008D0
:1000A0001B0100081B0100081B0100081B010008C0
:1000B0001B0100081B0100081B0100081B010008B0
:1000C0001B0100081B0100081B0100081B010008A0
:1000D0001B0100081B0100081B0100081B01000890
:1000E0001B0100081B0100081B010008DFF80CD0F1
:1000F00000F018F800480047F5060008200400202A
:100100000648804706480047FEE7FEE7FEE7FEE7B1
:10011000FEE7FEE7FEE7FEE7FEE7FEE75D04000818
:10012000ED000008064C074D06E0E06840F00103D2
:1001300094E8070098471034AC42F6D3FFF7DAFF93
:10014000F40700081408000800BFFEE770472DE917
:10015000F04102460025002600200023002400274D
:1001600091F803C00CF00F0591F803C00CF0100CCF
:10017000BCF1000F03D091F802C04CEA050591F8DC
:1001800000C0BCF1000F31D0146800202BE04FF00C
:10019000010C0CFA00F3B1F800C00CEA03069E4211
:1001A00020D183004FF00F0C0CFA03F7BC4305FA83
:1001B00003FC4CEA040491F803C0BCF1280F06D1FB
:1001C0004FF0010C0CFA00FCC2F814C00AE091F8E0
:1001D00003C0BCF1480F05D14FF0010C0CFA00FC34
:1001E000C2F810C0401C0828D1D31460B1F800C078
:1001F000BCF1FF0F34DD546800202EE000F1080C44
:100200004FF0010808FA0CF3B1F800C00CEA03063D
:100210009E4221D183004FF00F0C0CFA03F7BC4330
:1002200005FA03FC4CEA040491F803C0BCF1280F62
:1002300005D100F1080C08FA0CF8C2F8148091F806
:1002400003C0BCF1480F07D100F1080C4FF00108C2
:1002500008FA0CF8C2F81080401C0828CED354606D
:10026000BDE8F081416170470161704700BFFEE762
:1002700000BFFEE77047000029B1064A92690243B9
:10028000044B9A6104E0034A92698243014B9A61EC
:10029000704700000010024030B500210022002409
:1002A00000232D4D6D6805F00C0121B1042905D006
:1002B000082923D105E0294D056022E0274D05607E
:1002C0001FE0254D6D6805F47012234D6D6805F42F
:1002D0008034022505EB92421CB9214D554305603F
:1002E0000BE01D4D6D6805F400351DB11C4D5543E7
:1002F000056002E0194D5543056002E0174D0560A9
:1003000000BF00BF144D6D6805F0F0010909154DDF
:100310006B5C0568DD4045600F4D6D6805F4E0617C
:10032000090A104D6B5C4568DD4085600A4D6D68BB
:1003300005F46051C90A0B4D6B5C4568DD40C56032
:10034000054D6D6805F44041890B074D6B5CC56830
:10035000B5FBF3F5056130BD0010024000127A00D4
:1003600000093D000000002010000020704710B57B
:1003700000F002F810BD00000CB5002001900090C4
:100380003348006840F480303149086000BF30488D
:10039000006800F4003000900198401C0190009823
:1003A00018B90198B0F5A06FF1D12948006800F4A0
:1003B000003010B10120009001E000200090009872
:1003C000012843D12348006840F01000214908600B
:1003D0000846006820F0030008600846006840F006
:1003E000020008601A484068194948600846406899
:1003F00048600846406840F48060486008464068AD
:1004000020F47C1048600846406840F4E8104860DA
:100410000846006840F08070086000BF0C48006823
:1004200000F000700028F9D00948406820F003006F
:10043000074948600846406840F00200486000BF35
:100440000348406800F00C000828F9D10CBD0000FA
:1004500000100240002002407047000010B5134811
:10046000006840F0010011490860084640681049E2
:1004700008400E494860084600680E4908400B498C
:1004800008600846006820F480200860084640683C
:1004900020F4FE0048604FF41F008860FFF767FFFC
:1004A0004FF000600449086010BD000000100240D9
:1004B0000000FFF8FFFFF6FE08ED00E021B18289A1
:1004C00042F40052828104E082894DF6FF731A40A3
:1004D0008281704702460020B1F5007F00D100BF45
:1004E00013880B400BB1012000E000207047F0B5ED
:1004F0000346002400260025002040F66A17B94272
:1005000000D100BF1846C1F3421401F01F060127B5
:1005100007FA06F5012C01D10C3004E0022C01D1C0
:10052000103000E014301AB107682F43076002E072
:100530000768AF430760F0BD2DE9F04786B0054678
:100540000E460024A24600BFA1460027B08900B194
:1005500000BF2F462C8A4CF6FF700440F0880443FD
:100560002C82AC894EF6F3100440B08831890843E0
:10057000718908430443AC81AC8A4FF6FF400440C4
:10058000B0890443AC8201A8FFF786FE1F4887426A
:1005900002D1DDF810A001E0DDF80CA0A88900F47C
:1005A000004040B10AEBCA0000EB0A103168490074
:1005B000B0FBF1F807E00AEBCA0000EB0A10316863
:1005C0008900B0FBF1F86420B8FBF0F004012009C9
:1005D000642101FB1089A88900F4004040B1322059
:1005E00000EBC900B0FBF1F000F00700044308E0A5
:1005F000322000EB09106421B0FBF1F000F00F0095
:1006000004432C8106B0BDE8F087000000380140AB
:1006100001468888C0F308007047C1F30802828051
:10062000704700BFFEE70000014A024900F013B81E
:10063000990600081800002002E008C8121F08C12F
:10064000002AFAD170477047002001E001C1121F53
:10065000002AFBD170472DE9F04116460F460446AB
:10066000002503E03946B047641C6D1C2078002843
:10067000F8D12846BDE8F08110B5044600BF8021BE
:100680000448FFF727FF0028F9D00248FFF7C0FF12
:1006900010BD00000038014070B504460D46E1B2BF
:1006A0000548FFF7BAFF00BF80210348FFF712FF9C
:1006B0000028F9D0204670BD00380140FFF7DCBFAC
:1006C00008B501211020FFF7D7FD10208DF8030099
:1006D0004002ADF8000003208DF80200694604488E
:1006E000FFF735FD4FF400510148FFF7BDFD08BD90
:1006F000001001400EB510A207CA8DE80700FFF7F1
:10070000DFFF00F02FF80FA0FFF78EFF13E0114876
:10071000FFF7D4FFC4B2312C02D0322C0AD105E04D
:100720004FF400510C48FFF79DFD03E00BA0FFF7CD
:100730007BFF00BF00BFEAE70102030405060708CC
:1007400009000000B4AEBFDACDA8D1B6CAB5D1E970
:10075000A3A10A0014000020001001404552524F8E
:10076000520A000000B585B001210420FFF784FD86
:1007700001218803FFF780FD4FF40070ADF8000001
:1007800018208DF8030003208DF8020069461748F1
:10079000FFF7DDFC4FF48060ADF8000004208DF819
:1007A000030069461148FFF7D2FC4FF4E130019095
:1007B0000020ADF810000C20ADF80E000020ADF8C0
:1007C0000C00ADF80A00ADF8080001A90848FFF7D1
:1007D000B3FE012240F225510548FFF788FE0121B2
:1007E0000348FFF76BFE05B000BD000000080140A4
:1007F0000038014014080008000000201C00000020
:1008000038060008300800081C000020040400001E
:10081000480600080000000001020304010203046E
:100820000607080902040608000000000000000096
:0400000508000101ED
:00000001FF
