:020000040800F2
:100000008004002001010008AD020008A5020008DC
:10001000A902000875010008E50A000800000000B8
:100020000000000000000000000000003908000887
:100030007901000800000000AF020008250900084F
:100040001B0100081B0100081B0100081B01000820
:100050001B0100081B0100081B0100081B01000810
:100060001B0100081B0100081B0100081B01000800
:100070001B0100081B0100081B0100081B010008F0
:100080001B0100081B0100081B0100081B010008E0
:100090001B0100081B0100081B0100081B010008D0
:1000A0001B0100081B0100081B0100081B010008C0
:1000B0001B0100081B0100081B0100081B010008B0
:1000C0001B0100081B0100081B0100081B010008A0
:1000D0001B0100081B0100081B0100081B01000890
:1000E0001B0100081B0100081B010008DFF80CD0F1
:1000F00000F02EF800480047310D00088004002071
:100100000648804706480047FEE7FEE7FEE7FEE7B1
:10011000FEE7FEE7FEE7FEE7FEE7FEE72909000847
:10012000ED00000830B50B460146002020220124D6
:1001300009E021FA02F59D4205D303FA02F5491BB5
:1001400004FA02F52844151EA2F10102F1DC30BDCB
:10015000064C074D06E0E06840F0010394E8070014
:1001600098471034AC42F6D3FFF7C4FF940E000852
:10017000B40E000800BFFEE7704710B500F016FA95
:1001800000F084FA10BD2DE9F0410246002500265A
:10019000002000230024002791F803C00CF00F0575
:1001A00091F803C00CF0100CBCF1000F03D091F8D3
:1001B00002C04CEA050591F800C0BCF1000F31D037
:1001C000146800202BE04FF0010C0CFA00F3B1F89A
:1001D00000C00CEA03069E4220D183004FF00F0CB2
:1001E0000CFA03F7BC4305FA03FC4CEA040491F84B
:1001F00003C0BCF1280F06D14FF0010C0CFA00FC33
:10020000C2F814C00AE091F803C0BCF1480F05D150
:100210004FF0010C0CFA00FCC2F810C0401C08287A
:10022000D1D31460B1F800C0BCF1FF0F34DD5468C5
:1002300000202EE000F1080C4FF0010808FA0CF342
:10024000B1F800C00CEA03069E4221D183004FF0B2
:100250000F0C0CFA03F7BC4305FA03FC4CEA040448
:1002600091F803C0BCF1280F05D100F1080C08FA81
:100270000CF8C2F8148091F803C0BCF1480F07D104
:1002800000F1080C4FF0010808FA0CF8C2F81080D1
:10029000401C0828CED35460BDE8F081416170470E
:1002A0000161704700BFFEE700BFFEE7704770477F
:1002B00029B1064A92690243044B9A6104E0034A59
:1002C00092698243014B9A6170470000001002401E
:1002D00030B500210022002400232D4D6D6805F06B
:1002E0000C0121B1042905D0082923D105E0294DAD
:1002F000056022E0274D05601FE0254D6D6805F47F
:100300007012234D6D6805F48034022505EB92428E
:100310001CB9214D554305600BE01D4D6D6805F47A
:1003200000351DB11C4D5543056002E0194D554384
:10033000056002E0174D056000BF00BF144D6D68F9
:1003400005F0F0010909154D6B5C0568DD4045605D
:100350000F4D6D6805F4E061090A104D6B5C45684E
:10036000DD4085600A4D6D6805F46051C90A0B4D8A
:100370006B5C4568DD40C560054D6D6805F4404126
:10038000890B074D6B5CC568B5FBF3F5056130BDA6
:100390000010024000127A0000093D0044000020D5
:1003A0005400002021B1028842F04002028004E0A3
:1003B00002884FF6BF731A400280704710B504469A
:1003C00000F0E4F810210B48FFF768FF202000F050
:1003D000A1F8C4F3074000F09DF8C4F3072000F033
:1003E00099F8E0B200F096F810210248FFF758FFA4
:1003F00010BD0000000801402DE9F05F07460E46E1
:1004000014464FF00008C146C2460025AB4606F030
:10041000FF0A2046E11704EB1161C1F30728E11739
:1004200004EB11610912A4EB012101F0FF09BAF1FB
:10043000000F20D1B8F1000F05D1224639463046D1
:1004400000F0D0F964E009E04FF48072394630469C
:1004500000F0C8F906F5807607F58077B8F100005E
:10046000A8F1010101F0FF08EED14A4639463046B5
:1004700000F0B8F94CE0B8F1000F18D1A94510DD33
:10048000A9EB050000F0FF0B2A463946304600F084
:10049000A9F92E442F445A463946304600F0A2F9B5
:1004A00036E022463946304600F09CF930E0601BC9
:1004B00084B22046E11704EB1161C1F30728E1176C
:1004C00004EB11610912A4EB012101F0FF092A4696
:1004D0003946304600F086F92E442F4409E04FF4A7
:1004E00080723946304600F07DF906F5807607F5D2
:1004F0008077B8F10000A8F1010101F0FF08EED10A
:10050000B9F1000F04D04A463946304600F06AF986
:10051000BDE8F09F10B504464FF4805019490860BB
:100520000AE018490868411E164A116020B90020E7
:1005300000F01EF9C0B210BD0221134800F07AF895
:100540000028EED02146104800F080F84FF480508B
:100550000C4908600AE00B490868411E094A11600D
:1005600020B9012000F004F9C0B2E4E701210648F7
:1005700000F060F80028EED0034800F064F8C0B244
:10058000D9E70000400000200030014010B51021E4
:100590000548FFF783FE0620FFF7BCFF1021024845
:1005A000FFF77EFE10BD00000008014008B50121E4
:1005B0000803FFF77DFE01210420FFF779FE1820D4
:1005C0008DF8030003208DF802002020ADF8000014
:1005D00069461748FFF7D7FD8020ADF800001820C6
:1005E0008DF8030003208DF8020069461048FFF7DC
:1005F000CAFD4020ADF8000004208DF80300032060
:100600008DF8020069460A48FFF7BDFD10208DF8FD
:10061000030003208DF802001020ADF800006946A9
:100620000348FFF7B0FD10210148FFF739FE08BD70
:10063000000801400246002013890B400BB1012045
:1006400000E000207047014688897047818170472B
:1006500010B50022028802F441520B884C882343D3
:100660008C882343CC8823430C8923434C89234320
:100670008C892343CC8923431A430280838B4FF216
:10068000FF74234083830B8A038210BD00B585B0BD
:100690000020ADF800004FF48270ADF80200002099
:1006A000ADF804000220ADF806000120ADF8080006
:1006B0004002ADF80A000820ADF80C000020ADF8AB
:1006C0000E00ADF8100069460448FFF7C1FF012194
:1006D0000248FFF767FE05B000BD00000030014092
:1006E00070B504460D46164610211048FFF7D6FD9A
:1006F0000320FFF70FFFC4F30740FFF70BFFC4F31E
:100700000720FFF707FFE0B2FFF704FF04E0FF2038
:10071000FFF700FF28706D1C301EA6F10106F6D110
:1007200010210248FFF7BCFD70BD00000008014029
:1007300010B5002410210D48FFF7B0FD9F20FFF7F2
:10074000E9FEFF20FFF7E6FE04462402FF20FFF744
:10075000E1FE04432402FF20FFF7DCFE04431021E6
:100760000248FFF79DFD204610BD00000008014033
:1007700010B50446214602A000F0B6F9002010BDD5
:100780003C3C2D464C4153482D4552524F522D3E34
:100790003E53504920B5C8B4FDB3ACCAB12165720F
:1007A000726F72436F6465203D2025640A0000006B
:1007B00010B5002410210A48FFF770FD0520FFF74F
:1007C000A9FE00BFFF20FFF7A5FE044604F00100CC
:1007D0000028F7D110210248FFF762FD10BD00008C
:1007E0000008014070B504460D461646FFF7CEFEE0
:1007F00010211048FFF752FD0220FFF78BFEC4F3D3
:100800000740FFF787FEC4F30720FFF783FEE0B23F
:10081000FFF780FE03E02878FFF77CFE6D1C301E9A
:10082000A6F10106F7D110210248FFF739FDFFF7C5
:10083000BFFF70BD00080140704710B500F002F81E
:1008400010BD00000CB500200190009033480068F6
:1008500040F480303149086000BF3048006800F43F
:10086000003000900198401C0190009818B9019840
:10087000B0F5A06FF1D12948006800F4003010B144
:100880000120009001E0002000900098012843D151
:100890002348006840F010002149086008460068BD
:1008A00020F0030008600846006840F0020008607D
:1008B0001A48406819494860084640684860084638
:1008C000406840F4806048600846406820F47C102E
:1008D00048600846406840F4E810486008460068F0
:1008E00040F08070086000BF0C48006800F00070A5
:1008F0000028F9D00948406820F003000749486003
:100900000846406840F00200486000BF0348406865
:1009100000F00C000828F9D10CBD000000100240C6
:10092000002002407047000010B51348006840F0F6
:1009300001001149086008464068104908400E4906
:100940004860084600680E4908400B4908600846A0
:10095000006820F4802008600846406820F4FE000B
:1009600048604FF41F008860FFF767FF4FF000609A
:100970000449086010BD0000001002400000FFF8AC
:10098000FFFFF6FE08ED00E021B1828942F400523B
:10099000828104E082894DF6FF731A40828170479C
:1009A00002460020B1F5007F00D100BF13880B4044
:1009B0000BB1012000E000207047F0B50346002491
:1009C00000260025002040F66A17B94200D100BF7A
:1009D0001846C1F3421401F01F06012707FA06F575
:1009E000012C01D10C3004E0022C01D1103000E0C8
:1009F00014301AB107682F43076002E00768AF435D
:100A00000760F0BD2DE9F04786B005460E4600248C
:100A1000A24600BFA1460027B08900B100BF2F4603
:100A20002C8A4CF6FF700440F08804432C82AC8979
:100A30004EF6F3100440B0883189084371890843A9
:100A40000443AC81AC8A4FF6FF400440B0890443B4
:100A5000AC8201A8FFF73CFC1F48874202D1DDF8B9
:100A600010A001E0DDF80CA0A88900F4004040B11E
:100A70000AEBCA0000EB0A1031684900B0FBF1F83C
:100A800007E00AEBCA0000EB0A1031688900B0FBEE
:100A9000F1F86420B8FBF0F004012009642101FBA7
:100AA0001089A88900F4004040B1322000EBC90051
:100AB000B0FBF1F000F00700044308E0322000EB47
:100AC00009106421B0FBF1F000F00F0004432C8109
:100AD00006B0BDE8F087000000380140C1F308020D
:100AE0008280704700BFFEE70FB4054B10B503A925
:100AF000044A029800F018F810BC5DF814FB0000DE
:100B0000E10C00085800002002E008C8121F08C1CC
:100B1000002AFAD170477047002001E001C1121F7E
:100B2000002AFBD1704700002DE9FF4F8BB09A4699
:100B30000F460546002606E025280BD052460D99A3
:100B400090476D1C761C28780028F5D10FB03046F0
:100B5000BDE8F08F0024A0460122604900E0044374
:100B600015F8013F203B02FA03F00842F7D128783C
:100B70002E2817D115F8010F44F004042A280ED0AE
:100B80006FF02F022878A0F1300109290AD808EB6C
:100B9000880102EB410100EB01086D1CF2E757F8F8
:100BA000048B6D1C287869283ED006DC0028CDD047
:100BB00063280BD0642804D136E0732810D0752840
:100BC0004BD052460D999047761C85E017F8040BE0
:100BD0008DF8000000208DF80100E946012003E0B7
:100BE00057F8049B4FF0FF3061074FF0000401D429
:100BF0000AE0641C44450DDA8442FADB19F804105B
:100C00000029F6D106E0641C8442FCDB19F80410CC
:100C10000029F8D1264404E019F8010B52460D9939
:100C20009047641EF8D257E001CF4FF00A0B00281E
:100C300002DA40422D2102E0210504D52B218DF856
:100C40002410012103E0E10705D02021F7E70DF191
:100C5000200908910CE00021F9E701CF4FF00A0BC1
:100C6000F9E75946FFF75EFA01F1300209F8012D64
:100C70000028F6D1ADEB090000F1200B600701D48C
:100C80004FF00108D84502DDA8EB0B0000E0002082
:100C90008046002406E009A85246005D0D99904761
:100CA000641C761C08988442F5DB04E03020524630
:100CB0000D999047761CB8F10001A8F10108F5DC08
:100CC00005E019F8010B52460D999047761CBBF1CF
:100CD0000001ABF1010BF4DC6D1C34E709280100C5
:100CE00070B504460D46E1B20548FFF7F7FE00BFB8
:100CF00080210348FFF754FE0028F9D0204670BD3C
:100D00000038014008B501211020FFF7D1FA10206A
:100D10008DF803004002ADF8000003208DF80200BA
:100D200069460248FFF72FFA08BD00000010014095
:100D300010B5FFF7E7FF00F065F8FFF71EFA16A001
:100D4000FFF7D2FEFFF7F4FC04461948844221D194
:100D500018A0FFF7C9FE0020FFF730FBFFF728FDC2
:100D60001AA0FFF7C1FE1F2200211C48FFF744FB19
:100D70001F221B490020FFF7B3FC184919A0FFF7F9
:100D8000B3FE1F2216490020FFF7AAFC144919A040
:100D9000FFF7AAFE002010BD53504920B6C1D0B4C1
:100DA00020464C41534820B2E2CAD4A3BA0A0000FC
:100DB0001740EF00BCECB2E2B5BDB4AED0D0464CAB
:100DC0004153482057323551363421000A464C41B0
:100DD0005348B2C1B3FDCDEAB3C90A001F000020D9
:100DE0005C000020D0B4C8EBCAFDBEDD3A25730A12
:100DF00000000000B6C1C8A1CAFDBEDD3A25730AD5
:100E00000000000000B585B001210420FFF750FA72
:100E100001218803FFF74CFA4FF40070ADF8000091
:100E200018208DF8030003208DF80200694617484A
:100E3000FFF7A9F94FF48060ADF8000004208DF8A9
:100E4000030069461148FFF79EF94FF4E130019025
:100E50000020ADF810000C20ADF80E000020ADF819
:100E60000C00ADF80A00ADF8080001A90848FFF72A
:100E7000C9FD012240F225510548FFF79EFD0121E1
:100E80000348FFF781FD05B000BD000000080140E8
:100E900000380140B40E0008000000205C00000093
:100EA000080B0008100F00085C000020240400005C
:100EB000180B0008C4E3BAC32CD5E2CAC753504983
:100EC000B9D8D3DA464C415348B5C4B2E2CAD421AA
:100ED0000D0A00C4E3BAC32CD5E2CAC7535049B9BE
:100EE000D8D3DA464C415348B5C4B2E2CAD4210D36
:100EF0000A00000000A0000000000000010203043E
:100F000001020304060708090204060800000000A5
:0400000508000101ED
:00000001FF
