:020000040800F2
:100000002004002001010008230300081B0300084E
:100010001F030008EB0100080D09000800000000A4
:100020000000000000000000000000006106000861
:10003000EF01000800000000250300084D0700083C
:100040001B0100081B0100081B0100081B01000820
:100050001B0100081B0100081B0100081B01000810
:100060001B0100081B0100081B0100081B01000800
:100070001B0100081B0100081B0100081B010008F0
:100080001B0100081B0100081B0100081B010008E0
:100090001B0100081B0100081B0100081B010008D0
:1000A0001B0100081B0100081B0100081B010008C0
:1000B0001B0100081B0100081B0100081B010008B0
:1000C0001B0100081B0100081B0100081B010008A0
:1000D0001B0100081B0100081B0100081B01000890
:1000E0001B0100081B0100081B010008DFF80CD0F1
:1000F00000F04AF800480047610C00082004002086
:100100000648804706480047FEE7FEE7FEE7FEE7B1
:10011000FEE7FEE7FEE7FEE7FEE7FEE75107000821
:10012000ED0000082DE9F05F0546002092469B4651
:1001300088460646814640241BE0284641464746FD
:10014000224600F042F853465A46C01A914110D355
:1001500011461846224600F029F82D1A67EB0108CF
:100160004F4622460120002100F020F817EB00093D
:100170004E41201EA4F10104DFDC484631462A46E8
:100180004346BDE8F09F0000064C074D06E0E068DE
:1001900040F0010394E8070098471034AC42F6D3CE
:1001A000FFF7A8FF3C0D00085C0D0008202A04DBC7
:1001B000203A00FA02F1002070479140C2F120037A
:1001C00020FA03F3194390407047202A04DB203AB9
:1001D00021FA02F00021704721FA02F3D040C2F167
:1001E0002002914008431946704700BFFEE7704760
:1001F00010B500F05BF900F0C9F910BD2DE9F04130
:10020000024600250026002000230024002791F844
:1002100003C00CF00F0591F803C00CF0100CBCF1FA
:10022000000F03D091F802C04CEA050591F800C018
:10023000BCF1000F31D0146800202BE04FF0010C0E
:100240000CFA00F3B1F800C00CEA03069E4220D17C
:1002500083004FF00F0C0CFA03F7BC4305FA03FCC4
:100260004CEA040491F803C0BCF1280F06D14FF00A
:10027000010C0CFA00FCC2F814C00AE091F803C0AB
:10028000BCF1480F05D14FF0010C0CFA00FCC2F88C
:1002900010C0401C0828D1D31460B1F800C0BCF1D4
:1002A000FF0F34DD546800202EE000F1080C4FF001
:1002B000010808FA0CF3B1F800C00CEA03069E42EC
:1002C00021D183004FF00F0C0CFA03F7BC4305FA61
:1002D00003FC4CEA040491F803C0BCF1280F05D1DB
:1002E00000F1080C08FA0CF8C2F8148091F803C069
:1002F000BCF1480F07D100F1080C4FF0010808FAD3
:100300000CF8C2F81080401C0828CED35460BDE819
:10031000F081416170470161704700BFFEE700BF97
:10032000FEE770477047000029B1064A9269024310
:10033000044B9A6104E0034A92698243014B9A613B
:10034000704700000010024030B500210022002458
:1003500000232D4D6D6805F00C0121B1042905D055
:10036000082923D105E0294D056022E0274D0560CD
:100370001FE0254D6D6805F47012234D6D6805F47E
:100380008034022505EB92421CB9214D554305608E
:100390000BE01D4D6D6805F400351DB11C4D554336
:1003A000056002E0194D5543056002E0174D0560F8
:1003B00000BF00BF144D6D6805F0F0010909154D2F
:1003C0006B5C0568DD4045600F4D6D6805F4E061CC
:1003D000090A104D6B5C4568DD4085600A4D6D680B
:1003E00005F46051C90A0B4D6B5C4568DD40C56082
:1003F000054D6D6805F44041890B074D6B5CC56880
:10040000B5FBF3F5056130BD0010024000127A0023
:1004100000093D00040000201400002021B10288E2
:1004200042F04002028004E002884FF6BF731A4097
:100430000280704710B504464FF480501949086097
:100440000AE018490868411E164A116020B90020C8
:1004500000F0E6F8C0B210BD0221134800F06AF8BF
:100460000028EED02146104800F070F84FF480507C
:100470000C4908600AE00B490868411E094A1160EE
:1004800020B9012000F0CCF8C0B2E4E70121064811
:1004900000F050F80028EED0034800F054F8C0B245
:1004A000D9E70000000000200030014008B501211C
:1004B0000803FFF739FF01210420FFF735FF18205B
:1004C0008DF8030003208DF802002020ADF8000015
:1004D00069461748FFF792FE8020ADF8000018200B
:1004E0008DF8030003208DF8020069461048FFF7DD
:1004F00085FE4020ADF8000004208DF803000320A5
:100500008DF8020069460A48FFF778FE10208DF842
:10051000030003208DF802001020ADF800006946AA
:100520000348FFF76BFE10210148FFF7F4FE08BDFA
:10053000000801400246002013890B400BB1012046
:1005400000E000207047014688897047818170472C
:1005500010B50022028802F441520B884C882343D4
:100560008C882343CC8823430C8923434C89234321
:100570008C892343CC8923431A430280838B4FF217
:10058000FF74234083830B8A038210BD00B585B0BE
:100590000020ADF800004FF48270ADF8020000209A
:1005A000ADF804000220ADF806000120ADF8080007
:1005B0004002ADF80A000820ADF80C000020ADF8AC
:1005C0000E00ADF8100069460448FFF7C1FF012195
:1005D0000248FFF723FF05B000BD000000300140D6
:1005E00010B5002410210D48FFF793FE9F20FFF760
:1005F00021FFFF20FFF71EFF04462402FF20FFF724
:1006000019FF04432402FF20FFF714FF04431021C5
:100610000248FFF780FE204610BD000000080140A0
:1006200010B50446214602A000F072F9002010BD6A
:100630003C3C2D464C4153482D4552524F522D3E85
:100640003E53504920B5C8B4FDB3ACCAB121657260
:10065000726F72436F6465203D2025640A000000BC
:10066000704710B500F002F810BD00000CB5002076
:10067000019000903348006840F4803031490860B0
:1006800000BF3048006800F4003000900198401C22
:100690000190009818B90198B0F5A06FF1D12948E0
:1006A000006800F4003010B10120009001E000204B
:1006B00000900098012843D12348006840F01000C2
:1006C000214908600846006820F0030008600846D9
:1006D000006840F0020008601A4840681949486004
:1006E0000846406848600846406840F480604860BA
:1006F0000846406820F47C1048600846406840F492
:10070000E81048600846006840F08070086000BF4C
:100710000C48006800F000700028F9D009484068D3
:1007200020F00300074948600846406840F0020096
:10073000486000BF0348406800F00C000828F9D169
:100740000CBD000000100240002002407047000075
:1007500010B51348006840F00100114908600846D0
:100760004068104908400E494860084600680E4934
:1007700008400B4908600846006820F480200860A3
:100780000846406820F4FE0048604FF41F0088606F
:10079000FFF767FF4FF000600449086010BD0000DC
:1007A000001002400000FFF8FFFFF6FE08ED00E039
:1007B00021B1828942F40052828104E082894DF69F
:1007C000FF731A408281704702460020B1F5007F16
:1007D00000D100BF13880B400BB1012000E00020C6
:1007E0007047F0B50346002400260025002040F69F
:1007F0006A17B94200D100BF1846C1F3421401F094
:100800001F06012707FA06F5012C01D10C3004E080
:10081000022C01D1103000E014301AB107682F43C8
:10082000076002E00768AF430760F0BD2DE9F047BD
:1008300086B005460E460024A24600BFA14600270A
:10084000B08900B100BF2F462C8A4CF6FF700440DF
:10085000F08804432C82AC894EF6F3100440B08833
:1008600031890843718908430443AC81AC8A4FF64F
:10087000FF400440B0890443AC8201A8FFF764FD47
:100880001F48874202D1DDF810A001E0DDF80CA07E
:10089000A88900F4004040B10AEBCA0000EB0A103E
:1008A00031684900B0FBF1F807E00AEBCA0000EB41
:1008B0000A1031688900B0FBF1F86420B8FBF0F051
:1008C00004012009642101FB1089A88900F400407B
:1008D00040B1322000EBC900B0FBF1F000F007009E
:1008E000044308E0322000EB09106421B0FBF1F072
:1008F00000F00F0004432C8106B0BDE8F087000033
:1009000000380140C1F308028280704700BFFEE753
:100910000FB4054B10B503A9044A029800F018F86B
:1009200010BC5DF814FB0000110C0008180000203A
:1009300002E008C8121F08C1002AFAD170477047A8
:10094000002001E001C1121F002AFBD17047000006
:100950002DE9FF4F8DB09B460F460446002606E06A
:1009600025280BD05A460F999047641C761C207896
:100970000028F5D111B03046BDE8F08F0025A8461B
:100980000122984900E0054314F8013F203B02FA98
:1009900003F00842F7D120782E2817D114F8010F60
:1009A00045F004052A280ED06FF02F022078A0F120
:1009B000300109290AD808EB880102EB410100EB5C
:1009C0000108641CF2E757F8048B641C20786C283B
:1009D0000DD004DC4C2812D06A2811D104E0742810
:1009E0000DD07A280CD10AE045F4001507E06178B3
:1009F00045F48015814202D1641C05F58015641C04
:100A00002278692A45D008DC002AB3D0582A69D058
:100A1000632A10D0642A08D13BE0702A67D0732A79
:100A200013D0752A5CD0782A5CD010465A460F99AC
:100A30009047761CD3E017F8040B8DF800000020D7
:100A40008DF80100E946012003E057F8049B4FF0C0
:100A5000FF3069074FF0000501D40AE06D1C4545E1
:100A60000DDA8542FADB19F805100029F6D106E007
:100A70006D1C8542FCDB19F805100029F8D12E44C5
:100A800004E019F8010B5A460F9990476D1EF8D2F1
:100A9000A5E00A200021CDE90801C5F30250022893
:100AA0000DD001CFC117031E71F100030DDA4FF015
:100AB000000CD0EB0C006CEB01012D2308E0FF1DB6
:100AC00027F00707F7E80201EDE72B0504D52B23F4
:100AD0008DF8283001233BE0EB0739D02023F7E7DE
:100AE0000A2000E010200021CDE9080107E01020D5
:100AF000002145F00405CDE908014FF00808C5F3D1
:100B0000025002280FD001CF00214FF0000A2B071E
:100B10001FD5702A0DD0DDE908C38CF0100C5CEAFB
:100B2000030C0CD015E0FF1D27F00707F7E80201C2
:100B3000EBE740228DF828204FF0010A0BE050EA45
:100B4000010306D030238DF828308DF829200223A8
:100B50009A46582A04D024A20DF120090B9209E0EC
:100B600026A2F9E7DDE90823FFF7DCFA0B9B9B5C83
:100B700009F8013D50EA0102F4D1ADEB0900203043
:100B80000890680701D44FF001080899884502DDF4
:100B9000A8EB010000E000208046002506E00AA83E
:100BA0005A46405D0F9990476D1C761C5545F6DB03
:100BB00004E030205A460F999047761CB8F10001A6
:100BC000A8F10108F5DC05E019F8010B5A460F9968
:100BD0009047761C0899481E08900029F4DC641C94
:100BE000C5E600000928010030313233343536378C
:100BF0003839616263646566000000003031323369
:100C00003435363738394142434445460000000008
:100C100070B504460D46E1B20548FFF773FE00BF0C
:100C200080210348FFF7D0FD0028F9D0204670BD91
:100C30000038014008B501211020FFF775FB102096
:100C40008DF803004002ADF8000003208DF802008B
:100C500069460248FFF7D2FA08BD000000100140C3
:100C6000FFF7E8FF00F022F8FFF7C2FA05A0FFF750
:100C70004FFEFFF7B5FC0446214608A0FFF748FEEB
:100C800000BFFEE753504920B6C1D0B420464C41C6
:100C9000534820B2E2CAD4A3BA0A0000466C61737A
:100CA00068204944203D307825780A0000B585B099
:100CB00001210420FFF738FB01218803FFF734FBF3
:100CC0004FF40070ADF8000018208DF803000320E9
:100CD0008DF8020069461748FFF790FA4FF48060DC
:100CE000ADF8000004208DF8030069461148FFF7B5
:100CF00085FA4FF4E13001900020ADF810000C208F
:100D0000ADF80E000020ADF80C00ADF80A00ADF80B
:100D1000080001A90848FFF789FD012240F225518A
:100D20000548FFF75EFD01210348FFF741FD05B0CF
:100D300000BD000000080140003801405C0D0008C3
:100D4000000000201C00000030090008780D000899
:100D50001C000020040400004009000800A000005E
:100D60000000000001020304010203040607080951
:080D7000020406080000000067
:0400000508000101ED
:00000001FF
