:020000040800F2
:100000009828002001010008A102000899020008B8
:100010009D02000875010008150B00080000000093
:100020000000000000000000000000006908000857
:100030007901000800000000A3020008550900082B
:100040001B0100081B0100081B0100081B01000820
:100050001B0100081B0100081B0100081B01000810
:100060001B0100081B0100081B0100081B01000800
:100070001B0100081B0100081B0100081B010008F0
:100080001B0100081B0100081B0100081B010008E0
:100090001B0100081B0100081B0100081B010008D0
:1000A0001B0100081B0100081B0100081B010008C0
:1000B0001B0100081B0100081B0100081B010008B0
:1000C0001B0100081B0100081B0100081B010008A0
:1000D0001B0100081B0100081B0100081B01000890
:1000E0001B0100081B0100081B010008DFF80CD0F1
:1000F00000F02EF800480047292100089828002029
:100100000648804706480047FEE7FEE7FEE7FEE7B1
:10011000FEE7FEE7FEE7FEE7FEE7FEE75909000817
:10012000ED00000830B50B460146002020220124D6
:1001300009E021FA02F59D4205D303FA02F5491BB5
:1001400004FA02F52844151EA2F10102F1DC30BDCB
:10015000064C074D06E0E06840F0010394E8070014
:1001600098471034AC42F6D3FFF7C4FFC828000804
:10017000E828000800BFFEE770472DE9F04102467D
:1001800000250026002000230024002791F803C04A
:100190000CF00F0591F803C00CF0100CBCF1000F2F
:1001A00003D091F802C04CEA050591F800C0BCF1FB
:1001B000000F31D0146800202BE04FF0010C0CFA36
:1001C00000F3B1F800C00CEA03069E4220D1830080
:1001D0004FF00F0C0CFA03F7BC4305FA03FC4CEA92
:1001E000040491F803C0BCF1280F06D14FF0010CB4
:1001F0000CFA00FCC2F814C00AE091F803C0BCF18C
:10020000480F05D14FF0010C0CFA00FCC2F810C0E9
:10021000401C0828D1D31460B1F800C0BCF1FF0F16
:1002200034DD546800202EE000F1080C4FF0010886
:1002300008FA0CF3B1F800C00CEA03069E4221D183
:1002400083004FF00F0C0CFA03F7BC4305FA03FCD4
:100250004CEA040491F803C0BCF1280F05D100F169
:10026000080C08FA0CF8C2F8148091F803C0BCF12D
:10027000480F07D100F1080C4FF0010808FA0CF8FC
:10028000C2F81080401C0828CED35460BDE8F0812D
:10029000416170470161704700BFFEE700BFFEE7A4
:1002A0007047704729B1064A92690243044B9A612C
:1002B00004E0034A92698243014B9A61704700004F
:1002C0000010024030B500210022002400232D4DF3
:1002D0006D6805F00C0121B1042905D0082923D14E
:1002E00005E0294D056022E0274D05601FE0254D02
:1002F0006D6805F47012234D6D6805F48034022595
:1003000005EB92421CB9214D554305600BE01D4D94
:100310006D6805F400351DB11C4D5543056002E0C4
:10032000194D5543056002E0174D056000BF00BF41
:10033000144D6D6805F0F0010909154D6B5C0568F9
:10034000DD4045600F4D6D6805F4E061090A104D10
:100350006B5C4568DD4085600A4D6D6805F4605151
:10036000C90A0B4D6B5C4568DD40C560054D6D6885
:1003700005F44041890B074D6B5CC568B5FBF3F58F
:10038000056130BD0010024000127A0000093D00F6
:100390001C0000202C00002021B1028842F0400205
:1003A000028004E002884FF6BF731A400280704753
:1003B00010B5044600F01AF910210B48FFF768FF4A
:1003C000202000F0D7F8C4F3074000F0D3F8C4F3BE
:1003D000072000F0CFF8E0B200F0CCF8102102487E
:1003E000FFF758FF10BD00000008014070B505463A
:1003F0000C46164610211048FFF74AFF032000F074
:10040000B9F8C4F3074000F0B5F8C4F3072000F0D2
:10041000B1F8E0B200F0AEF804E0FF2000F0AAF876
:1004200028706D1C301EA6F101018EB2F5D110218D
:100430000148FFF72FFF70BD000801402DE9F05F74
:1004400007460E4614464FF00008C146C246002536
:10045000AB4610214348FFF71BFF00F0C7F806F03A
:10046000FF0A2046E11704EB1161C1F30728E117E9
:1004700004EB11610912A4EB012101F0FF09BAF1AB
:10048000000F20D1B8F1000F05D122463946304681
:1004900000F0C0F964E009E04FF48072394630465C
:1004A00000F0B8F906F5807607F58077B8F100001E
:1004B000A8F1010101F0FF08EED14A463946304665
:1004C00000F0A8F94CE0B8F1000F18D1A94510DDF3
:1004D000A9EB050000F0FF0B2A463946304600F034
:1004E00099F92E442F445A463946304600F092F985
:1004F00036E022463946304600F08CF930E0601B89
:1005000084B22046E11704EB1161C1F30728E1171B
:1005100004EB11610912A4EB012101F0FF092A4645
:100520003946304600F076F92E442F4409E04FF466
:1005300080723946304600F06DF906F5807607F591
:100540008077B8F10000A8F1010101F0FF08EED1B9
:10055000B9F1000F04D04A463946304600F05AF946
:10056000BDE8F09F0008014010B500F05FF800F012
:10057000CDF810BD10B504464FF4805019490860FD
:100580000AE018490868411E164A116020B9002087
:1005900000F006F9C0B210BD0221134800F08AF83D
:1005A0000028EED02146104800F090F84FF480501B
:1005B0000C4908600AE00B490868411E094A1160AD
:1005C00020B9012000F0ECF8C0B2E4E701210648B0
:1005D00000F070F80028EED0034800F074F8C0B2C4
:1005E000D9E70000180000200030014010B51021AC
:1005F0000548FFF74DFE0620FFF7BCFF102102481B
:10060000FFF748FE10BD00000008014010B51021A2
:100610000548FFF73DFEAB20FFF7ACFF1021024875
:10062000FFF738FE10BD00000008014008B50121A9
:100630000803FFF737FE01210420FFF733FE1820DF
:100640008DF8030003208DF802002020ADF8000093
:1006500069461748FFF791FD8020ADF8000018208B
:100660008DF8030003208DF8020069461048FFF75B
:1006700084FD4020ADF8000004208DF80300032025
:100680008DF8020069460A48FFF777FD10208DF8C3
:10069000030003208DF802001020ADF80000694629
:1006A0000348FFF76AFD10210148FFF7F3FD08BD7D
:1006B000000801400246002013890B400BB10120C5
:1006C00000E00020704701468889704781817047AB
:1006D00010B50022028802F441520B884C88234353
:1006E0008C882343CC8823430C8923434C892343A0
:1006F0008C892343CC8923431A430280838B4FF296
:10070000FF74234083830B8A038210BD00B585B03C
:100710000020ADF800004FF48270ADF80200002018
:10072000ADF804000220ADF806000120ADF8080085
:100730004002ADF80A000820ADF80C000020ADF82A
:100740000E00ADF8100069460448FFF7C1FF012113
:100750000248FFF721FE05B000BD00000030014057
:1007600010B5002410210D48FFF792FD9F20FFF7E0
:1007700001FFFF20FFF7FEFE04462402FF20FFF7E3
:10078000F9FE04432402FF20FFF7F4FE0443102186
:100790000248FFF77FFD204610BD00000008014021
:1007A00010B50446214602A000F0B6F9002010BDA5
:1007B0003C3C2D464C4153482D4552524F522D3E04
:1007C0003E53504920B5C8B4FDB3ACCAB1216572DF
:1007D000726F72436F6465203D2025640A0000003B
:1007E00010B5002410210A48FFF752FD0520FFF73D
:1007F000C1FE00BFFF20FFF7BDFE044604F001006C
:100800000028F7D110210248FFF744FD10BD000079
:100810000008014070B504460D461646FFF7E6FE97
:1008200010211048FFF734FD0220FFF7A3FEC4F3A8
:100830000740FFF79FFEC4F30720FFF79BFEE0B2DF
:10084000FFF798FE03E02878FFF794FE6D1C301E3A
:10085000A6F10106F7D110210248FFF71BFDFFF7B3
:10086000BFFF70BD00080140704710B500F002F8EE
:1008700010BD00000CB500200190009033480068C6
:1008800040F480303149086000BF3048006800F40F
:10089000003000900198401C0190009818B9019810
:1008A000B0F5A06FF1D12948006800F4003010B114
:1008B0000120009001E0002000900098012843D121
:1008C0002348006840F0100021490860084600688D
:1008D00020F0030008600846006840F0020008604D
:1008E0001A48406819494860084640684860084608
:1008F000406840F4806048600846406820F47C10FE
:1009000048600846406840F4E810486008460068BF
:1009100040F08070086000BF0C48006800F0007074
:100920000028F9D00948406820F0030007494860D2
:100930000846406840F00200486000BF0348406835
:1009400000F00C000828F9D10CBD00000010024096
:10095000002002407047000010B51348006840F0C6
:1009600001001149086008464068104908400E49D6
:100970004860084600680E4908400B490860084670
:10098000006820F4802008600846406820F4FE00DB
:1009900048604FF41F008860FFF767FF4FF000606A
:1009A0000449086010BD0000001002400000FFF87C
:1009B000FFFFF6FE08ED00E021B1828942F400520B
:1009C000828104E082894DF6FF731A40828170476C
:1009D00002460020B1F5007F00D100BF13880B4014
:1009E0000BB1012000E000207047F0B50346002461
:1009F00000260025002040F66A17B94200D100BF4A
:100A00001846C1F3421401F01F06012707FA06F544
:100A1000012C01D10C3004E0022C01D1103000E097
:100A200014301AB107682F43076002E00768AF432C
:100A30000760F0BD2DE9F04786B005460E4600245C
:100A4000A24600BFA1460027B08900B100BF2F46D3
:100A50002C8A4CF6FF700440F08804432C82AC8949
:100A60004EF6F3100440B088318908437189084379
:100A70000443AC81AC8A4FF6FF400440B089044384
:100A8000AC8201A8FFF71EFC1F48874202D1DDF8A7
:100A900010A001E0DDF80CA0A88900F4004040B1EE
:100AA0000AEBCA0000EB0A1031684900B0FBF1F80C
:100AB00007E00AEBCA0000EB0A1031688900B0FBBE
:100AC000F1F86420B8FBF0F004012009642101FB77
:100AD0001089A88900F4004040B1322000EBC90021
:100AE000B0FBF1F000F00700044308E0322000EB17
:100AF00009106421B0FBF1F000F00F0004432C81D9
:100B000006B0BDE8F087000000380140C1F30802DC
:100B10008280704700BFFEE70FB4054B10B503A9F4
:100B2000044A029800F018F810BC5DF814FB0000AD
:100B30001D1F00083C00002002E008C8121F08C169
:100B4000002AFAD170477047002001E001C1121F4E
:100B5000002AFBD1704700002DE9FF4F8BB09A4669
:100B60000F460546002606E025280BD052460D9973
:100B700090476D1C761C28780028F5D10FB03046C0
:100B8000BDE8F08F0024A0460122604900E0044344
:100B900015F8013F203B02FA03F00842F7D128780C
:100BA0002E2817D115F8010F44F004042A280ED07E
:100BB0006FF02F022878A0F1300109290AD808EB3C
:100BC000880102EB410100EB01086D1CF2E757F8C8
:100BD000048B6D1C287869283ED006DC0028CDD017
:100BE00063280BD0642804D136E0732810D0752810
:100BF0004BD052460D999047761C85E017F8040BB0
:100C00008DF8000000208DF80100E946012003E086
:100C100057F8049B4FF0FF3061074FF0000401D4F8
:100C20000AE0641C44450DDA8442FADB19F804102A
:100C30000029F6D106E0641C8442FCDB19F804109C
:100C40000029F8D1264404E019F8010B52460D9909
:100C50009047641EF8D257E001CF4FF00A0B0028EE
:100C600002DA40422D2102E0210504D52B218DF826
:100C70002410012103E0E10705D02021F7E70DF161
:100C8000200908910CE00021F9E701CF4FF00A0B91
:100C9000F9E75946FFF746FA01F1300209F8012D4C
:100CA0000028F6D1ADEB090000F1200B600701D45C
:100CB0004FF00108D84502DDA8EB0B0000E0002052
:100CC0008046002406E009A85246005D0D99904731
:100CD000641C761C08988442F5DB04E03020524600
:100CE0000D999047761CB8F10001A8F10108F5DCD8
:100CF00005E019F8010B52460D999047761CBBF19F
:100D00000001ABF1010BF4DC6D1C34E70928010094
:100D100070B504460D4600202071401EE062294651
:100D2000204601F0C5FB08B1032070BD94F82E12D7
:100D300094F82F0241EA00204AF65521884201D05A
:100D40000220F2E794F86900010694F8680041EA8D
:100D5000004194F8670041EA002094F866100843C7
:100D600020F07F400D49884201D10020DDE794F852
:100D70008500010694F8840041EA004194F883005C
:100D800041EA002094F88210084320F07F40034994
:100D9000884201D10020C8E70120C6E7464154003F
:100DA000024600E0521C107810B110788842F9D148
:100DB000107870470246891E5069801E884201D80B
:100DC000002070479378906A01FB0300F9E72DE952
:100DD000F04704468946B9F1000F06D1E76817B11C
:100DE0006069B84215D8012713E04946204601F052
:100DF000A7F80646022E02D20120BDE8F087701C3B
:100E000008B93046F9E76069B04201D93046F4E7E5
:100E10004F463D4600BF6D1C6069A84204D80225BC
:100E2000BD4201D90020E8E72946204601F088F8B4
:100E3000064606B909E0701C08B1012E01D1304602
:100E4000DBE7BD42E7D10020D7E700BF6FF070427B
:100E50002946204601F046FB8046B8F1000F08D134
:100E6000B9F1000F05D02A464946204601F03AFB69
:100E70008046B8F1000F0BD1E5602069401C78B1C5
:100E80002069401E2061607940F00100607107E038
:100E9000B8F1010F02D14FF0FF3000E0012005460C
:100EA0002846AAE72DE9F35F0198D0F8009001E009
:100EB00009F1010999F800002F28F9D099F80000EC
:100EC0005C28F5D0009886690B222021304601F07D
:100ED000E5FA00252F46AB464FF0080A00BF5846FA
:100EE0000BF1010B19F80040202C03DD2F2C01D051
:100EF0005C2C00D153E02E2C01D057450DD3BAF114
:100F0000080F01D12E2C02D00620BDE8FC9F082737
:100F10004FF00B0AA806050EE1E7802C01DB45F037
:100F20000305812C20DBFE2C1EDC58460BF1010B47
:100F300019F80080B8F1400F02DBB8F17E0F05DD33
:100F4000B8F1800F06DBB8F1FE0F03DCAAF1010057
:100F5000B84201D80620D8E738467F1C34543846BA
:100F60007F1C06F8008019E0214620A0FFF718FF3B
:100F700008B10620C9E7412C04DB5A2C02DC45F0FD
:100F8000020508E0612C06DB7A2C04DC45F0010543
:100F9000A4F12000C4B238467F1C34549FE700BF40
:100FA00009EB0B0101980160202C01DC042000E01A
:100FB000002004460FB90620A7E73078E52801D1C4
:100FC00005203070BAF1080F01D1A806050E05F012
:100FD0000300012801D144F0100405F00C0004289E
:100FE00001D144F00804F47200208EE7222A2B2C51
:100FF0003A3B3C3D3E3F5B5D7C7F00002DE9F0418C
:1010000004460E460021204600F00EF90546EDB9D3
:10101000002700BF2169206801F04AFA054605B1A2
:1010200013E060690078E52802D06069007820B993
:10103000781C0746B04201D107E000270121204675
:1010400000F038F80546002DE4D000BF042D00D193
:1010500007252846BDE8F0812DE9F041044600212E
:10106000204600F0E1F8054615B12846BDE8F081BC
:1010700000BF2169206801F01BFA054605B116E0A2
:10108000666937780FB9042511E0F07A00F008009E
:1010900030B90B223046A16901F0E0F900B906E051
:1010A0000021204600F006F80546002DE1D000BFE3
:1010B0002846DBE72DE9F04104468846E088461CD7
:1010C000B0B208B1206910B90420BDE8F0812168F0
:1010D0004889C11700EBD1614911B6FBF1F201FB60
:1010E0001261002971D12069401C2061E06828B993
:1010F00020680089B04268D80420E6E72168488962
:10110000C11700EBD1614911B6FBF1F12268927869
:10111000521E1140002958D1E168206800F010FFEC
:101120000546012D01D80220CFE7681C08B901202F
:10113000CBE720684069A84241D8B8F1000F01D13F
:101140000420C2E7E1682068FFF741FE05460DB9BB
:101150000720BAE7012D01D10220B6E7681C08B9C3
:101160000120B2E7206801F023FB08B10120ACE7C1
:1011700021684A8901F13000002101F08FF92946E8
:101180002068FFF717FE2168C86200270EE00120E3
:1011900021680871206801F00BFB08B1012094E779
:1011A0002068C06A401C2168C8627F1C2068807863
:1011B000B842ECD82068C06AC01B2168C862E560EC
:1011C00029462068FFF7F6FD2061E68021684889FE
:1011D000C11700EBD1614911B6FBF1F201FB1261BD
:1011E0002268303202EB4111616100206DE770B579
:1011F000044601212046FFF701FF054695B9216904
:10120000206801F055F9054665B920220021606982
:1012100001F044F90B22D4E9050101F032F9012073
:1012200021680871284670BD2DE9F04104460E463C
:10123000E680A568012D03D020684069A84202D845
:101240000220BDE8F0812DB920680078032801D183
:101250002068456A45B920680089B04201D802205B
:10126000EFE72068476A24E021684889C11700EB4E
:10127000D16149112268927801FB02F812E02946F7
:10128000206800F05DFE0546681C08B90120D8E71B
:10129000022D03D320684069A84201D80220D0E77C
:1012A000A6EB08064645EAD229462068FFF782FDEC
:1012B0000746E5600FB90220C3E721684889C117D6
:1012C00000EBD1614911B6FBF1F13944216121688C
:1012D0004889C11700EBD1614911B6FBF1F201FB5E
:1012E00012612268303202EB411161610020A8E7EF
:1012F00070B50446012614B1012C11D100E011E0B3
:10130000FFF732F94FF4FA7500BF681E80B2051E70
:10131000FBD1FFF77BF9012000F04AF8064601E017
:10132000012600BF00BF304670BD10B50346042043
:1013300013B1012B16D100E016E0012904D00229D7
:1013400006D003290BD107E04FF4C064146006E017
:101350004FF48054148002E00124146000BF00BFE9
:10136000002001E0042000BF00BF10BD2DE9F041C6
:1013700006460F4614461D464FF0040816B1012ECE
:101380000ED100E00FE004F500744FF6FF7000EAA4
:10139000053221033846FFF729F84FF0000802E034
:1013A0004FF0040800BF00BF4046BDE8F0810000D8
:1013B00070B50446012514B1012C0BD100E00BE0FF
:1013C000FFF7CEF90649884202D125F0010500E079
:1013D000012501E0012500BF00BF284670BD0000C7
:1013E0001740EF002DE9F0470746884615461C4692
:1013F0004FF0040914B90420BDE8F08717B1012F9C
:1014000012D100E013E005F500752E033046FEF71B
:10141000CFFF4FF6FF7000EA043231464046FFF737
:101420000DF84FF0000902E04FF0040900BF00BFC3
:101430004846E1E770B50546284600F0DCF9044669
:1014400034B9284601F026FA04460CB90020286079
:10145000204670BDF7B582B016460398019001A8EA
:1014600000F012FE0546002D02DA0B2005B0F0BD9B
:101470000E4850F825400CB100202070029810B1A1
:101480000020029908700949029841F82500029845
:1014900008B1012E01D00020E8E7002203A902A82C
:1014A00000F008FB07463846E0E700003000002067
:1014B0002DE9F7438AB0054616461DB909200DB03F
:1014C000BDE8F0830020286006F01F0626F0010228
:1014D0000BA903A800F0EEFA0746002F72D1CDF851
:1014E00024D003A80B9900F0D1FC0746089C0FB943
:1014F00004B9062706F01C0000285CD04FB1042F69
:1015000003D103A8FFF773FE074646F00806089CC0
:1015100009E0E07A00F0110008B1072703E006F0C7
:10152000040000B10827002F55D106F0080000285C
:1015300051D000F0A5FD804684F80E804FEA1821B6
:10154000E1734FEA184121744FEA1861617484F81D
:1015500016804FEA1821E1754FEA184121764FEACB
:10156000186161760020E072207700216177A17711
:10157000E1772146039800F0ACFD8146002120462A
:1015800001F0AAF8012003990871B9F1000F22D0E7
:101590000398D0F82C804946039801F067F8074675
:1015A000CFB9A9F101000399C8604146039800F042
:1015B0007FFF07460FE077B9E07A00F0100010B126
:1015C000042708E02DE006F0020020B1E07A00F0E8
:1015D000010000B1072747B906F0080008B146F03E
:1015E00020060398C06AE8612C62D7B9AE7100206A
:1015F000E8712146039800F06CFD2861E07F010648
:10160000A07F41EA0041607F41EA0020217F08433A
:10161000E8600020A860A861039828602868C08856
:10162000A88038464BE72DE9FF4F85B004461546A4
:101630009A46DDF818B00020CAF80000204601F0F4
:1016400029F90490049818B1049809B0BDE8F08F06
:10165000E07908B1E079F8E7A07900F0010008B975
:101660000720F2E7D4E90210401A0290029885425E
:1016700000D9029DBAE021684989A068B0FBF1F267
:1016800001FB1200002877D121684989A068B0FBCE
:10169000F1F021688978491E084000F0FF09B9F18E
:1016A000000F17D1A06810B92069039004E06169A8
:1016B000206800F045FC03900398022802D2022023
:1016C000E071C2E70398401C10B90120E071BCE74B
:1016D0000398606161692068FFF76CFB064616B9E4
:1016E0000220E071B1E74E4420684089B5FBF0F874
:1016F000B8F1000F2DD009EB0800216889788842E5
:1017000003D920688078A0EB09082168487843460F
:1017100032465946FFF72AFE10B10120E07194E7E6
:10172000A07900F0400078B1A069801B40450BD241
:10173000A169891B23685B8901FB03B021684A8981
:1017400004F1240100F09DFE2068408900FB08F7A9
:1017500042E0A069B04220D0A07900F0400080B102
:1017600021684878012304F12401A269FFF73AFEB9
:1017700018B10120E07168E710E0A07920F0400086
:10178000A071216848780123324604F12401FFF753
:10179000EDFD10B10120E07157E7A661216849898C
:1017A000A068B0FBF1F201FB1200216849890F1A11
:1017B000AF4200D92F4621684989A068B0FBF1F2F9
:1017C00001FB120104F1240008443A46014601904D
:1017D000584600F056FE00BFBB44A0683844A060E5
:1017E000DAF800003844CAF80000ED1B002D7FF441
:1017F00042AF002029E72DE9F0410446204601F0E0
:1018000049F80746002F4CD1A07900F020000028AD
:1018100047D0A07900F0400078B1216848780123D2
:1018200004F12401A269FFF7DDFD10B10120BDE83C
:10183000F081A07920F04000A071E169206800F0FB
:1018400037FE0746002F2CD1256AE87A40F02000A9
:10185000E872207B2877A089010A6977E068010C8B
:10186000A977E068010EE9772846216900F034FF86
:1018700000F006FC0646AE75310AE975310C297692
:10188000310E69760020A8740021E974A07920F057
:101890002000A071012021680871206800F024FF59
:1018A00007463846C3E72DE9FF4F83B00446154687
:1018B0009B46049801900020CBF80000204600F0E1
:1018C000E9FF0290029818B1029807B0BDE8F08FC6
:1018D000E07908B1E079F8E7A07900F0020008B9F2
:1018E0000720F2E7A0682844A168884200D20025BA
:1018F000CFE021684989A068B0FBF1F201FB12003A
:1019000000287ED121684989A068B0FBF1F02168E8
:101910008978491E084000F0FF0ABAF1000F1ED175
:10192000A06838B9276957B900212068FFF74FFA36
:10193000074604E061692068FFF749FA074607B9DE
:10194000AAE0012F02D10220E071BEE7781C10B995
:101950000120E071B9E76761206900B92761A079CA
:1019600000F0400078B121684878012304F1240197
:10197000A269FFF737FD10B10120E071A5E7A0795A
:1019800020F04000A07161692068FFF713FA064655
:1019900016B90220E07198E7564420684089B5FBEB
:1019A000F0F9B9F1000F31D00AEB0900216889780C
:1019B000884203D920688078A0EB0A09216848781A
:1019C0004B4632460199FFF70DFD10B10120E07141
:1019D0007BE7A069801B484511D2A069831B206862
:1019E000B0F80AC0019803FB0C012068428904F199
:1019F000240000F046FDA07920F04000A07120688E
:101A000000E017E0408900FB09F835E0A069B0422A
:101A10000FD0D4E9020188420BD221684878012313
:101A2000324604F12401FFF7A1FC10B10120E0715E
:101A30004BE7A66121684989A068B0FBF1F201FB80
:101A4000120021684989A1EB0008A84500D9A846E1
:101A500021684989A068B0FBF1F201FB120104F191
:101A60002400084442460090019900F00AFDA07944
:101A700040F04000A07100BF019840440190A06870
:101A80004044A060DBF800004044CBF80000A5EB28
:101A90000805002D7FF42DAF00BFD4E90201884274
:101AA00001D9A068E060A07940F02000A07100207A
:101AB0000BE700002DE9F74F8AB000210A9801607A
:101AC0000B9800F0E1FA09900998002803DA0B203E
:101AD0000DB0BDE8F08FE949099851F820400CB9E4
:101AE0000C20F5E70A980460207878B16078FFF759
:101AF0005FFC814609F0010040B90C9820B109F063
:101B0000040008B10A20E3E70020E1E7002020708C
:101B1000099860706078FFF7EBFB814609F00100DF
:101B200008B10320D4E70C9820B109F0040008B1F3
:101B30000A20CDE7607804F10A020221FFF7F5FBE5
:101B400038B96089B0F5007F03DB6089B0F5805F4C
:101B500001DD0120BCE7002739462046FFF7D8F811
:101B60000546012D01D09DBB32E000261AE004F5A8
:101B7000F77000EB061898F8040070B198F80B00A5
:101B8000010698F80A0041EA004198F8090041EA84
:101B9000002098F80810084300E0002002A941F84E
:101BA0002600761C042EE2D3002606B1761E00BF66
:101BB00002A850F8267027B139462046FFF7A8F84A
:101BC00000E0022005461DB1701C06460428EFD334
:101BD000032D01D101207BE70DB10D2078E73B20DB
:101BE000015D94F83C0041EA00206189884201D0FF
:101BF0000D206DE74620015D94F8470041EA002A78
:101C0000BAF1000F0ED194F85700010694F856006F
:101C100041EA004194F8550041EA002094F854103C
:101C200040EA010AC4F818A04020005DE070E078A6
:101C3000012804D0E078022801D00D2048E7E078A0
:101C40000AFB00FA3D20005DA070A07818B1A078D2
:101C5000411E084008B10D203AE74120015D94F88B
:101C6000420041EA002020816089C11700EBD16168
:101C70004911228992FBF1F301FB132109B10D20D7
:101C800026E74320015D94F8440041EA00200890D3
:101C9000089870B994F85300010694F8520041EA8C
:101CA000004194F8510041EA002094F85010084394
:101CB00008903E20015D94F83F0041EA0020019029
:101CC000019808B90D2003E76089C11700EBD161C5
:101CD0004911228992FBF1F2019951441144079173
:101CE000DDE90710884201D20D20F1E6DDE9071099
:101CF000401AA178B0FBF1FBBBF1000F01D10D2020
:101D0000E6E6012540F6F670834500D302254FF63E
:101D1000F670834500D303250BF102006061E76193
:101D200001983844206207983844A062032D16D1E8
:101D3000208908B10D20CBE694F85F00010694F8E5
:101D40005E0041EA004194F85D0041EA002094F809
:101D50005C100843606260698000069014E020898E
:101D600008B90D20B4E6206A50446062022D02D109
:101D70006069400007E0207D00F00100616901EB2F
:101D8000410100EB510006906089401E069908440D
:101D90006189B0FBF1F0A169884201D90D2097E675
:101DA0004FF0FF302061E06080206071032D5AD138
:101DB00094F8601094F8610041EA0020012852D1A3
:101DC000791C204600F074FBE8BB0020607194F899
:101DD0002E1294F82F0241EA00204AF6552188423B
:101DE00041D13320005D01063220005D41EA00410F
:101DF0003120005D41EA002094F83010084320496A
:101E0000884230D194F81702010694F8160241EA8C
:101E1000004194F8150241EA002094F81412084396
:101E2000184988421FD194F81B02010694F81A023F
:101E300041EA004194F8190241EA002094F818128E
:101E40000843206100E00EE094F81F02010694F8B8
:101E50001E0241EA004194F81D0241EA002094F874
:101E60001C120843E060257007480088401C80B2BF
:101E700005490880E08000202AE6000030000020AC
:101E80005252614172724161380000202DE9F341E4
:101E90000446019800782F2803D0019800785C2828
:101EA00002D10198401C01900020A06001980078A8
:101EB000202807D200212046FFF7B6F9054600206A
:101EC000606128E000BF01A92046FEF7EBFF054650
:101ED00005B11FE02046FFF7BFF80546A069C67AA6
:101EE0003DB1042D04D100BF06F0040000B9052562
:101EF00010E006F0040000B10CE06769F87A00F029
:101F0000100008B9052505E03946206800F0E1F821
:101F1000A060D8E700BF2846BDE8FC8170B5044644
:101F20000D46E1B20548FEF7F1FD00BF80210348F0
:101F3000FEF74EFD0028F9D0204670BD0038014064
:101F40002DE9F05F04460D46022D02D36069A842D8
:101F500002D84FF001098FE04FF0FF3920780128B7
:101F600004D002283CD003287ED157E02F4607EB4F
:101F700057076089B7FBF0F0216A00EB010A514670
:101F8000204600F095FA00B175E038467F1C618963
:101F9000B0FBF1F201FB120104F1300010F80180F6
:101FA0006089B7FBF0F0216A00EB010A5146204638
:101FB00000F07EFA00B15EE06089B7FBF0F100FB53
:101FC000117104F13000405C48EA002805F001007E
:101FD00010B14FEA181001E0C8F30B0081464AE047
:101FE000B4F80AA00AEBDA704010B5FBF0F0216AF1
:101FF00000EB010B5946204600F05AFA00B13AE0D6
:1020000068006189B0FBF1F201FB120104F13000BC
:102010000E183078717840EA01292CE0B4F80AA053
:102020004FEAEA700AEB90708010B5FBF0F0216A7D
:1020300000EB010B5946204600F03AFA00B11AE0D5
:10204000A8006189B0FBF1F201FB120104F130003C
:102050000E18F0780006B17840EA0140717840EA45
:1020600001203178084300E002E020F0704902E0EE
:102070004FF0010900BF00BF4846BDE8F09F0000D7
:10208000004870470000215470B502464FF0FF3001
:102090001568E5B1116800E0491C0D78212D02D3C7
:1020A0000D783A2DF8D10D783A2D0FD1146814F827
:1020B000015BA5F130030A2B07D28C4205D1022B1C
:1020C00003D218464D1C2946156070BD002000BF84
:1020D000FBE710B502468C7ECB7E44EA03201378E2
:1020E000032B05D10C7D4B7D44EA032340EA0340DA
:1020F00010BD000008B501211020FEF7D3F8102014
:102100008DF803004002ADF8000003208DF80200B6
:1021100069460448FEF731F84FF400510148FEF7D4
:10212000B9F808BD00100140FFF7E4FF00F06AFBBA
:1021300049A0FEF7F1FC012251A15248FFF78AF9AC
:10214000514908700846007810B950A0FEF7E4FC29
:1021500058A0FEF7E1FC0A2261A16448FFF7A8F944
:102160004949087000206249086047480078002803
:1021700020D160A0FEF7D0FC5D4B0F226A495B487E
:10218000FFF791FB404908700846007848B9584865
:10219000016866A0FEF7C0FC63496DA0FEF7BCFCB9
:1021A00004E03948017872A0FEF7B6FC4F48FFF70B
:1021B00041F90CE04FF400517348FEF769F83248DA
:1021C00001786BA0FEF7A8FC70A0FEF7A5FC76A036
:1021D000FEF7A2FC012242A14448FFF769F92A490F
:1021E000087008460078002823D14FF40051664853
:1021F000FEF750F876A0FEF78FFC3D4B4FF480625F
:1022000078493A48FFF70FFA1F49087008460078E6
:1022100048B93748016874A0FEF77EFC71497BA07D
:10222000FEF77AFC0DE01848017880A0FEF774FCF8
:1022300007E04FF400515448FEF72AF881A0FEF75A
:102240006BFC2A48FFF7F6F801220DA10020FFF7EA
:1022500001F900BFFEE700002A2A2A2A2A2053504B
:10226000492020464C41534820CEC4BCFECFB5CDBA
:10227000B3CAB5D1E9202A2A2A2A2A2A0D0A00003F
:10228000313A00004000002000000020A1B7CEC479
:10229000BCFECFB5CDB3B9D2D4D8B3C9B9A6A3AC1F
:1022A000BFC9D2D4BDF8D0D0B6C1D0B4B2E2CAD47E
:1022B0000D0A00000D0A2A2A2A2A2A2A20BCB4BDA7
:1022C000ABBDF8D0D0CEC4BCFED0B4C8EBB2E2CA2D
:1022D000D42E2E2E202A2A2A2A2A2A0D0A0000006D
:1022E000313A46617446732E747874007010002081
:1022F00004000020A1B7B4F2BFAA2FB4B4BDA84611
:10230000617446732E747874CEC4BCFEB3C9B9A68A
:10231000A3ACCFF2CEC4BCFED0B4C8EBCAFDBEDDC8
:10232000A1A30D0A0000000008000020A1B7CEC440
:10233000BCFED0B4C8EBB3C9B9A6A3ACD0B4C8EB4B
:10234000D7D6BDDACAFDBEDDA3BA25640A000000F7
:10235000A1B7CFF2CEC4BCFED0B4C8EBB5C4CAFDA1
:10236000BEDDCEAAA3BA0D0A25730D0A0000000037
:10237000A3A1A3A1CEC4BCFED0B4C8EBCAA7B0DC55
:10238000A3BA282564290A0000100140A3A1A3A133
:10239000B4F2BFAA2FB4B4BDA8CEC4BCFECAA7B0C5
:1023A000DCA1A30D0A0000002A2A2A2A2A2A20BC1E
:1023B000B4BDABBDF8D0D0CEC4BCFEB6C1C8A1B2CE
:1023C000E2CAD42E2E2E202A2A2A2A2A2A0D0A00D0
:1023D000A1B7B4F2BFAACEC4BCFEB3C9B9A6A1A32B
:1023E0000D0A000094200020A1B7CEC4BCFEB6C1E7
:1023F000C8A1B3C9B9A62CB6C1B5BDD7D6BDDACA76
:10240000FDBEDDA3BA25640D0A000000A1B7B6C168
:10241000C8A1B5C4CEC4BCFECAFDBEDDCEAAA3BA57
:102420000D0A202573200D0A00000000A3A1A3A11E
:10243000CEC4BCFEB6C1C8A1CAA7B0DCA3BA2825C9
:1024400064290A00A3A1A3A1B4F2BFAACEC4BCFE12
:10245000CAA7B0DCA1A30D0A00000000F0B5034636
:102460001C460D46002000BF161EA2F1010207D037
:1024700014F8017B15F801CBA7EB0C06301EF3D046
:10248000F0BD70B503460C4603E014F8015B03F899
:10249000015B151EA2F10102F7D170BD30B50346F4
:1024A00001E003F8011B141EA2F10102F9D130BDB5
:1024B00070B504460D460026E06AA84210D02046BA
:1024C00000F076F906465EB9607801232A4604F1E9
:1024D0003001FEF74BFF10B14FF0FF350126E562EA
:1024E000304670BD2DE9F05F04460E461746022EB9
:1024F00002D36069B04202D84FF00208B3E02078FE
:10250000012804D0022852D0032872D172E0B146CB
:1025100009EB59096089B9FBF0F0216A00EB010A67
:1025200051462046FFF7C4FF8046B8F1000F00D0A7
:1025300098E0484609F101096189B0FBF1F201FB1D
:10254000120104F130000D1806F0010020B1F9B2BB
:10255000287861F31F1000E03846287001202071B0
:102560006089B9FBF0F0216A00EB010A5146204670
:10257000FFF79EFF8046B8F1000F00D072E060893F
:10258000B9FBF0F100FB119104F130000D1806F0D9
:10259000010010B1C7F3071005E0287800F0F00043
:1025A000C7F3032108432870012020715AE0B4F8D2
:1025B0000AA00AEBDA704010B6FBF0F0216A00EBDB
:1025C000010B59462046FFF773FF8046B8F1000F14
:1025D00000D047E070006189B0FBF1F201FB12010D
:1025E00004F130000D182F70380A68700120207136
:1025F00038E034E0B4F80AA04FEAEA700AEB9070D1
:102600008010B6FBF0F0216A00EB010B5946204622
:10261000FFF74EFF8046B8F1000F00D022E0B00077
:102620006189B0FBF1F201FB120104F130000D18D9
:10263000E8780006A97840EA0140697840EA01207C
:102640002978084300F0704007432F70380A6870FB
:10265000380CA870380EE8700120207102E04FF0AD
:10266000020800BF00BF4046BDE8F09F2DE9F041E1
:1026700004460E46022E02D36069B04201D80227FA
:1026800027E0002721E031462046FFF759FC0546A8
:1026900005B91DE0012D01D1022719E0681C08B918
:1026A000012715E0002231462046FFF71BFF0746B1
:1026B00007B10DE02069401C30B12069401C206149
:1026C000607940F0010060712E466069B042DAD84E
:1026D00000BF3846BDE8F08181760B0AC3760A0C4C
:1026E00002750B0E4375704770B50446204600F026
:1026F0005FF80546002D59D1207803284FD1607925
:1027000001284CD16289002104F13000FFF7C6FE98
:10271000552184F82E12AA2184F82F12522084F811
:1027200030005221312001556121322001554121D3
:1027300033200155722184F8141284F815124121B6
:1027400084F81612612184F81712217C84F818127B
:10275000208A010A84F819122069010C84F81A12DF
:102760002069010E84F81B12217B84F81C12A089B9
:10277000010A84F81D12E068010C84F81E12E0685A
:10278000010E84F81F12E069401CE06260780123AA
:1027900004F13001E26AFEF725FE002060716078E6
:1027A00000221146FEF7C1FD00B10125284670BD8B
:1027B0002DE9F041044600272079F8B1E56A6078F8
:1027C00001232A4604F13001FEF70CFE08B101276F
:1027D00014E000202071206A281AA16988420DD2D5
:1027E000E67809E0A0690544607801232A4604F1EF
:1027F0003001FEF7F7FD761E022EF3D23846BDE813
:10280000F081000000B585B001210420FDF74AFDEC
:1028100001218803FDF746FD4FF40070ADF800007C
:1028200018208DF8030003208DF802006946174830
:10283000FDF7A3FC4FF48060ADF8000004208DF894
:10284000030069461148FDF798FC4FF4E130019010
:102850000020ADF810000C20ADF80E000020ADF8FF
:102860000C00ADF80A00ADF8080001A90848FEF711
:10287000E1F8012240F225510548FEF7B6F80121A2
:102880000348FEF799F805B000BD000000080140BC
:102890000038014070B505462C4684B1206870B1FF
:1028A0002068007858B12068C088A188884206D185
:1028B00021684878FEF77CFD00F0010008B109208E
:1028C00070BD0020FCE70000E828000800000020A0
:1028D00040000000380B00082829000840000020B4
:1028E00058280000480B000800000000000000000D
:1028F00048656C6C6F20576F726C64210D0A000084
:1029000000A0000000000000010203040102030413
:102910000607080902040608000000000000000085
:082920000000000000000000AF
:0400000508000101ED
:00000001FF
