:020000040800F2
:100000000804002001010008A10100087D0100088A
:100010009D0100087501000817030008000000009A
:10002000000000000000000000000000A501000822
:100030007901000800000000A301000891020008F7
:100040001B0100081B0100081B0100081B01000820
:100050001B0100081B0100081B0100081B01000810
:100060001B0100081B0100081B0100081B01000800
:100070001B0100081B0100081B0100081B010008F0
:100080001B0100081B0100081B0100081B010008E0
:100090001B0100081B0100081B0100081B010008D0
:1000A0001B0100081B0100081B0100081B010008C0
:1000B0001B0100081B0100081B0100081B010008B0
:1000C0001B0100081B0100081B0100081B010008A0
:1000D0001B0100081B0100081B0100081B01000890
:1000E0001B0100081B0100081B010008DFF80CD0F1
:1000F00000F02EF800480047D5040008080400204E
:100100000648804706480047FEE7FEE7FEE7FEE7B1
:10011000FEE7FEE7FEE7FEE7FEE7FEE795020008E2
:10012000ED00000830B50B460146002020220124D6
:1001300009E021FA02F59D4205D303FA02F5491BB5
:1001400004FA02F52844151EA2F10102F1DC30BDCB
:10015000064C074D06E0E06840F0010394E8070014
:1001600098471034AC42F6D3FFF7C4FFD804000818
:10017000F804000800BFFEE77047000002A000F08E
:10018000CDF800BFFEE70000486172646661756CDF
:1001900074206572726F720A0000000000BFFEE7F3
:1001A00070477047704710B500F002F810BD0000AE
:1001B0000CB50020019000903348006840F4803076
:1001C0003149086000BF3048006800F400300090FA
:1001D0000198401C0190009818B90198B0F5A06FE3
:1001E000F1D12948006800F4003010B101200090DE
:1001F00001E0002000900098012843D123480068C6
:1002000040F01000214908600846006820F0030013
:1002100008600846006840F0020008601A4840681C
:10022000194948600846406848600846406840F4FC
:10023000806048600846406820F47C1048600846AA
:10024000406840F4E81048600846006840F080705C
:10025000086000BF0C48006800F000700028F9D06A
:100260000948406820F00300074948600846406894
:1002700040F00200486000BF0348406800F00C00F6
:100280000828F9D10CBD00000010024000200240F7
:100290007047000010B51348006840F00100114994
:1002A000086008464068104908400E494860084602
:1002B00000680E4908400B4908600846006820F4B1
:1002C000802008600846406820F4FE0048604FF433
:1002D0001F008860FFF767FF4FF000600449086067
:1002E00010BD0000001002400000FFF8FFFFF6FE06
:1002F00008ED00E002460020B1F5007F00D100BF0C
:1003000013880B400BB1012000E000207047C1F3BF
:1003100008028280704700BFFEE700000FB4054B63
:1003200010B503A9044A029800F018F810BC5DF853
:1003300014FB0000B10400080000002002E008C81F
:10034000121F08C1002AFAD170477047002001E04F
:1003500001C1121F002AFBD1704700002DE9FF4F99
:1003600089B09B460446002506E025280BD05A4656
:100370000B999047641C6D1C20780028F5D10DB0B6
:100380002846BDE8F08F0027B8460122474900E023
:10039000074314F8013F203B02FA03F00842F7D16B
:1003A00020782E2819D114F8010F47F004072A28C5
:1003B0000ED06FF02F022078A0F1300109290CD85F
:1003C00008EB880102EB410100EB0108641CF2E735
:1003D0000A98641C50F8048B0A9020780028CED02C
:1003E000642808D0692806D075281ED05A460B9973
:1003F00090476D1C58E00A994FF00A0901C90A910B
:10040000002802DA40422D2102E0390504D52B21D3
:100410008DF82010012103E0F90704D02021F7E72F
:100420008A4608AE0DE00021FAE70A994FF00A0962
:1004300001C90A91F7E74946FFF774FE303106F823
:10044000011D0028F7D1ADEB060000F12009780767
:1004500001D44FF00108C84502DDA8EB090000E017
:1004600000208046002706E008A85A46C05D0B9988
:1004700090476D1C7F1C5745F6DB04E030205A4640
:100480000B9990476D1CB8F10001A8F10108F5DC4B
:1004900005E016F8010B5A460B9990476D1CB9F10F
:1004A0000001A9F10109F4DC641C65E709280100D9
:1004B00070B504460D46E1B20548FFF728FF00BFBE
:1004C00080210348FFF716FF0028F9D0204670BDB1
:1004D0000038014000BFFEE7F804000800000020DB
:1004E000040000003C030008FC0400080400002095
:0C04F000040400004C03000800000000A1
:0400000508000101ED
:00000001FF
